{"abi":[{"type":"constructor","inputs":[{"name":"initialOwner","type":"address","internalType":"address"},{"name":"_pbToken","type":"address","internalType":"contract PushBricksToken"},{"name":"_propertyNFT","type":"address","internalType":"contract PropertyNFT"}],"stateMutability":"nonpayable"},{"type":"function","name":"getAverageRating","inputs":[{"name":"tokenId","type":"uint256","internalType":"uint256"}],"outputs":[{"name":"","type":"uint256","internalType":"uint256"}],"stateMutability":"view"},{"type":"function","name":"getPropertyReviews","inputs":[{"name":"tokenId","type":"uint256","internalType":"uint256"}],"outputs":[{"name":"","type":"tuple[]","internalType":"struct PropertyReviewSystem.Review[]","components":[{"name":"reviewer","type":"address","internalType":"address"},{"name":"tokenId","type":"uint256","internalType":"uint256"},{"name":"rating","type":"uint256","internalType":"uint256"},{"name":"comment","type":"string","internalType":"string"},{"name":"timestamp","type":"uint256","internalType":"uint256"},{"name":"chainNamespace","type":"string","internalType":"string"},{"name":"chainId","type":"string","internalType":"string"}]}],"stateMutability":"view"},{"type":"function","name":"getReviewCount","inputs":[{"name":"tokenId","type":"uint256","internalType":"uint256"}],"outputs":[{"name":"","type":"uint256","internalType":"uint256"}],"stateMutability":"view"},{"type":"function","name":"getUserReviews","inputs":[{"name":"user","type":"address","internalType":"address"}],"outputs":[{"name":"tokenIds","type":"uint256[]","internalType":"uint256[]"},{"name":"ratings","type":"uint256[]","internalType":"uint256[]"},{"name":"comments","type":"string[]","internalType":"string[]"},{"name":"timestamps","type":"uint256[]","internalType":"uint256[]"}],"stateMutability":"view"},{"type":"function","name":"getUserTotalReviews","inputs":[{"name":"user","type":"address","internalType":"address"}],"outputs":[{"name":"","type":"uint256","internalType":"uint256"}],"stateMutability":"view"},{"type":"function","name":"hasUserReviewed","inputs":[{"name":"user","type":"address","internalType":"address"},{"name":"tokenId","type":"uint256","internalType":"uint256"}],"outputs":[{"name":"","type":"bool","internalType":"bool"}],"stateMutability":"view"},{"type":"function","name":"owner","inputs":[],"outputs":[{"name":"","type":"address","internalType":"address"}],"stateMutability":"view"},{"type":"function","name":"pbToken","inputs":[],"outputs":[{"name":"","type":"address","internalType":"contract PushBricksToken"}],"stateMutability":"view"},{"type":"function","name":"propertyNFT","inputs":[],"outputs":[{"name":"","type":"address","internalType":"contract PropertyNFT"}],"stateMutability":"view"},{"type":"function","name":"renounceOwnership","inputs":[],"outputs":[],"stateMutability":"nonpayable"},{"type":"function","name":"submitReview","inputs":[{"name":"tokenId","type":"uint256","internalType":"uint256"},{"name":"rating","type":"uint256","internalType":"uint256"},{"name":"comment","type":"string","internalType":"string"}],"outputs":[],"stateMutability":"nonpayable"},{"type":"function","name":"transferOwnership","inputs":[{"name":"newOwner","type":"address","internalType":"address"}],"outputs":[],"stateMutability":"nonpayable"},{"type":"event","name":"OwnershipTransferred","inputs":[{"name":"previousOwner","type":"address","indexed":true,"internalType":"address"},{"name":"newOwner","type":"address","indexed":true,"internalType":"address"}],"anonymous":false},{"type":"event","name":"ReviewSubmitted","inputs":[{"name":"tokenId","type":"uint256","indexed":true,"internalType":"uint256"},{"name":"reviewer","type":"address","indexed":true,"internalType":"address"},{"name":"rating","type":"uint256","indexed":false,"internalType":"uint256"},{"name":"comment","type":"string","indexed":false,"internalType":"string"},{"name":"chainNamespace","type":"string","indexed":false,"internalType":"string"},{"name":"chainId","type":"string","indexed":false,"internalType":"string"},{"name":"timestamp","type":"uint256","indexed":false,"internalType":"uint256"}],"anonymous":false},{"type":"event","name":"TokensRewarded","inputs":[{"name":"reviewer","type":"address","indexed":true,"internalType":"address"},{"name":"tokenAmount","type":"uint256","indexed":false,"internalType":"uint256"},{"name":"tokenId","type":"uint256","indexed":true,"internalType":"uint256"}],"anonymous":false},{"type":"error","name":"OwnableInvalidOwner","inputs":[{"name":"owner","type":"address","internalType":"address"}]},{"type":"error","name":"OwnableUnauthorizedAccount","inputs":[{"name":"account","type":"address","internalType":"address"}]}],"bytecode":{"object":"0x60c060405234801562000010575f80fd5b5060405162003026380380620030268339818101604052810190620000369190620002d7565b825f73ffffffffffffffffffffffffffffffffffffffff168173ffffffffffffffffffffffffffffffffffffffff1603620000aa575f6040517f1e4fbdf7000000000000000000000000000000000000000000000000000000008152600401620000a1919062000341565b60405180910390fd5b620000bb816200012d60201b60201c565b508173ffffffffffffffffffffffffffffffffffffffff1660808173ffffffffffffffffffffffffffffffffffffffff16815250508073ffffffffffffffffffffffffffffffffffffffff1660a08173ffffffffffffffffffffffffffffffffffffffff16815250505050506200035c565b5f805f9054906101000a900473ffffffffffffffffffffffffffffffffffffffff169050815f806101000a81548173ffffffffffffffffffffffffffffffffffffffff021916908373ffffffffffffffffffffffffffffffffffffffff1602179055508173ffffffffffffffffffffffffffffffffffffffff168173ffffffffffffffffffffffffffffffffffffffff167f8be0079c531659141344cd1fd0a4f28419497f9722a3daafe3b4186f6b6457e060405160405180910390a35050565b5f80fd5b5f73ffffffffffffffffffffffffffffffffffffffff82169050919050565b5f6200021d82620001f2565b9050919050565b6200022f8162000211565b81146200023a575f80fd5b50565b5f815190506200024d8162000224565b92915050565b5f6200025f8262000211565b9050919050565b620002718162000253565b81146200027c575f80fd5b50565b5f815190506200028f8162000266565b92915050565b5f620002a18262000211565b9050919050565b620002b38162000295565b8114620002be575f80fd5b50565b5f81519050620002d181620002a8565b92915050565b5f805f60608486031215620002f157620002f0620001ee565b5b5f62000300868287016200023d565b935050602062000313868287016200027f565b92505060406200032686828701620002c1565b9150509250925092565b6200033b8162000211565b82525050565b5f602082019050620003565f83018462000330565b92915050565b60805160a051612c8c6200039a5f395f818161029801528181610af901528181610b810152610d1401525f818161117001526115470152612c8c5ff3fe608060405234801561000f575f80fd5b50600436106100b2575f3560e01c8063715018a61161006f578063715018a6146101c75780638da5cb5b146101d15780639f54b729146101ef578063ad834ff01461020b578063bb27173e1461023b578063f2fde38b14610259576100b2565b806317b7e03e146100b657806318d0e8b2146100e657806337f76838146101195780633f3b9b0c1461013757806343ae612d146101675780635d75135a14610197575b5f80fd5b6100d060048036038101906100cb919061190c565b610275565b6040516100dd9190611946565b60405180910390f35b61010060048036038101906100fb91906119b9565b61028f565b6040516101109493929190611be0565b60405180910390f35b610121610af7565b60405161012e9190611c9a565b60405180910390f35b610151600480360381019061014c9190611cb3565b610b1b565b60405161015e9190611d0b565b60405180910390f35b610181600480360381019061017c91906119b9565b610b7d565b60405161018e9190611946565b60405180910390f35b6101b160048036038101906101ac919061190c565b610ca7565b6040516101be9190611946565b60405180910390f35b6101cf610cc1565b005b6101d9610cd4565b6040516101e69190611d33565b60405180910390f35b61020960048036038101906102049190611dad565b610cfb565b005b6102256004803603810190610220919061190c565b6112b6565b6040516102329190611f8f565b60405180910390f35b610243611545565b6040516102509190611fcf565b60405180910390f35b610273600480360381019061026e91906119b9565b611569565b005b5f60035f8381526020019081526020015f20549050919050565b6060806060805f7f000000000000000000000000000000000000000000000000000000000000000073ffffffffffffffffffffffffffffffffffffffff166318160ddd6040518163ffffffff1660e01b8152600401602060405180830381865afa1580156102ff573d5f803e3d5ffd5b505050506040513d601f19601f820116820180604052508101906103239190611ffc565b90505f8167ffffffffffffffff8111156103405761033f612027565b5b60405190808252806020026020018201604052801561036e5781602001602082028036833780820191505090505b5090505f8267ffffffffffffffff81111561038c5761038b612027565b5b6040519080825280602002602001820160405280156103ba5781602001602082028036833780820191505090505b5090505f8367ffffffffffffffff8111156103d8576103d7612027565b5b60405190808252806020026020018201604052801561040b57816020015b60608152602001906001900390816103f65790505b5090505f8467ffffffffffffffff81111561042957610428612027565b5b6040519080825280602002602001820160405280156104575781602001602082028036833780820191505090505b5090505f80600190505b8681116108b95760025f8d73ffffffffffffffffffffffffffffffffffffffff1673ffffffffffffffffffffffffffffffffffffffff1681526020019081526020015f205f8281526020019081526020015f205f9054906101000a900460ff16156108a6575f60015f8381526020019081526020015f20805480602002602001604051908101604052809291908181526020015f905b82821015610749578382905f5260205f2090600702016040518060e00160405290815f82015f9054906101000a900473ffffffffffffffffffffffffffffffffffffffff1673ffffffffffffffffffffffffffffffffffffffff1673ffffffffffffffffffffffffffffffffffffffff168152602001600182015481526020016002820154815260200160038201805461059090612081565b80601f01602080910402602001604051908101604052809291908181526020018280546105bc90612081565b80156106075780601f106105de57610100808354040283529160200191610607565b820191905f5260205f20905b8154815290600101906020018083116105ea57829003601f168201915b505050505081526020016004820154815260200160058201805461062a90612081565b80601f016020809104026020016040519081016040528092919081815260200182805461065690612081565b80156106a15780601f10610678576101008083540402835291602001916106a1565b820191905f5260205f20905b81548152906001019060200180831161068457829003601f168201915b505050505081526020016006820180546106ba90612081565b80601f01602080910402602001604051908101604052809291908181526020018280546106e690612081565b80156107315780601f1061070857610100808354040283529160200191610731565b820191905f5260205f20905b81548152906001019060200180831161071457829003601f168201915b505050505081525050815260200190600101906104f7565b5050505090505f5b81518110156108a3578d73ffffffffffffffffffffffffffffffffffffffff16828281518110610784576107836120b1565b5b60200260200101515f015173ffffffffffffffffffffffffffffffffffffffff160361089657828885815181106107be576107bd6120b1565b5b6020026020010181815250508181815181106107dd576107dc6120b1565b5b6020026020010151604001518785815181106107fc576107fb6120b1565b5b60200260200101818152505081818151811061081b5761081a6120b1565b5b60200260200101516060015186858151811061083a576108396120b1565b5b6020026020010181905250818181518110610858576108576120b1565b5b602002602001015160800151858581518110610877576108766120b1565b5b602002602001018181525050838061088e9061210b565b9450506108a3565b8080600101915050610751565b50505b80806108b19061210b565b915050610461565b508067ffffffffffffffff8111156108d4576108d3612027565b5b6040519080825280602002602001820160405280156109025781602001602082028036833780820191505090505b5099508067ffffffffffffffff81111561091f5761091e612027565b5b60405190808252806020026020018201604052801561094d5781602001602082028036833780820191505090505b5098508067ffffffffffffffff81111561096a57610969612027565b5b60405190808252806020026020018201604052801561099d57816020015b60608152602001906001900390816109885790505b5097508067ffffffffffffffff8111156109ba576109b9612027565b5b6040519080825280602002602001820160405280156109e85781602001602082028036833780820191505090505b5096505f5b81811015610ae957858181518110610a0857610a076120b1565b5b60200260200101518b8281518110610a2357610a226120b1565b5b602002602001018181525050848181518110610a4257610a416120b1565b5b60200260200101518a8281518110610a5d57610a5c6120b1565b5b602002602001018181525050838181518110610a7c57610a7b6120b1565b5b6020026020010151898281518110610a9757610a966120b1565b5b6020026020010181905250828181518110610ab557610ab46120b1565b5b6020026020010151888281518110610ad057610acf6120b1565b5b60200260200101818152505080806001019150506109ed565b505050505050509193509193565b7f000000000000000000000000000000000000000000000000000000000000000081565b5f60025f8473ffffffffffffffffffffffffffffffffffffffff1673ffffffffffffffffffffffffffffffffffffffff1681526020019081526020015f205f8381526020019081526020015f205f9054906101000a900460ff16905092915050565b5f807f000000000000000000000000000000000000000000000000000000000000000073ffffffffffffffffffffffffffffffffffffffff166318160ddd6040518163ffffffff1660e01b8152600401602060405180830381865afa158015610be8573d5f803e3d5ffd5b505050506040513d601f19601f82011682018060405250810190610c0c9190611ffc565b90505f80600190505b828111610c9c5760025f8673ffffffffffffffffffffffffffffffffffffffff1673ffffffffffffffffffffffffffffffffffffffff1681526020019081526020015f205f8281526020019081526020015f205f9054906101000a900460ff1615610c89578180610c859061210b565b9250505b8080610c949061210b565b915050610c15565b508092505050919050565b5f60045f8381526020019081526020015f20549050919050565b610cc96115ed565b610cd25f611674565b565b5f805f9054906101000a900473ffffffffffffffffffffffffffffffffffffffff16905090565b5f73ffffffffffffffffffffffffffffffffffffffff167f000000000000000000000000000000000000000000000000000000000000000073ffffffffffffffffffffffffffffffffffffffff16636352211e866040518263ffffffff1660e01b8152600401610d6b9190611946565b602060405180830381865afa158015610d86573d5f803e3d5ffd5b505050506040513d601f19601f82011682018060405250810190610daa9190612166565b73ffffffffffffffffffffffffffffffffffffffff1603610e00576040517f08c379a0000000000000000000000000000000000000000000000000000000008152600401610df7906121eb565b60405180910390fd5b60018310158015610e12575060058311155b610e51576040517f08c379a0000000000000000000000000000000000000000000000000000000008152600401610e4890612253565b60405180910390fd5b60025f3373ffffffffffffffffffffffffffffffffffffffff1673ffffffffffffffffffffffffffffffffffffffff1681526020019081526020015f205f8581526020019081526020015f205f9054906101000a900460ff1615610eea576040517f08c379a0000000000000000000000000000000000000000000000000000000008152600401610ee1906122e1565b60405180910390fd5b5f80610ef4611735565b91509150610f0282826117c6565b5f6040518060e001604052803373ffffffffffffffffffffffffffffffffffffffff16815260200188815260200187815260200186868080601f0160208091040260200160405190810160405280939291908181526020018383808284375f81840152601f19601f820116905080830192505050505050508152602001428152602001845f015181526020018460200151815250905060015f8881526020019081526020015f2081908060018154018082558091505060019003905f5260205f2090600702015f909190919091505f820151815f015f6101000a81548173ffffffffffffffffffffffffffffffffffffffff021916908373ffffffffffffffffffffffffffffffffffffffff1602179055506020820151816001015560408201518160020155606082015181600301908161103d9190612493565b506080820151816004015560a082015181600501908161105d9190612493565b5060c08201518160060190816110739190612493565b505050600160025f3373ffffffffffffffffffffffffffffffffffffffff1673ffffffffffffffffffffffffffffffffffffffff1681526020019081526020015f205f8981526020019081526020015f205f6101000a81548160ff0219169083151502179055505f600160045f8a81526020019081526020015f20546110f99190612562565b90505f60035f8a81526020019081526020015f20549050818860045f8c81526020019081526020015f20548361112f9190612595565b6111399190612562565b6111439190612603565b60035f8b81526020019081526020015f20819055508160045f8b81526020019081526020015f20819055507f000000000000000000000000000000000000000000000000000000000000000073ffffffffffffffffffffffffffffffffffffffff16630dd27535336040518263ffffffff1660e01b81526004016111c79190611d33565b5f604051808303815f87803b1580156111de575f80fd5b505af11580156111f0573d5f803e3d5ffd5b505050503373ffffffffffffffffffffffffffffffffffffffff16897f0193f584067e0a3dc6eb012eb7d13dedcdfd12538f39eb035d1e219d3f8fc84b8a8a8a8a5f01518b602001514260405161124c969594939291906126a5565b60405180910390a3883373ffffffffffffffffffffffffffffffffffffffff167f1efc43bf72eed547fe9d1f91b2c55f7434c764fc2082e7a656567e7f852b1134674563918244f400006040516112a39190612746565b60405180910390a3505050505050505050565b606060015f8381526020019081526020015f20805480602002602001604051908101604052809291908181526020015f905b8282101561153a578382905f5260205f2090600702016040518060e00160405290815f82015f9054906101000a900473ffffffffffffffffffffffffffffffffffffffff1673ffffffffffffffffffffffffffffffffffffffff1673ffffffffffffffffffffffffffffffffffffffff168152602001600182015481526020016002820154815260200160038201805461138190612081565b80601f01602080910402602001604051908101604052809291908181526020018280546113ad90612081565b80156113f85780601f106113cf576101008083540402835291602001916113f8565b820191905f5260205f20905b8154815290600101906020018083116113db57829003601f168201915b505050505081526020016004820154815260200160058201805461141b90612081565b80601f016020809104026020016040519081016040528092919081815260200182805461144790612081565b80156114925780601f1061146957610100808354040283529160200191611492565b820191905f5260205f20905b81548152906001019060200180831161147557829003601f168201915b505050505081526020016006820180546114ab90612081565b80601f01602080910402602001604051908101604052809291908181526020018280546114d790612081565b80156115225780601f106114f957610100808354040283529160200191611522565b820191905f5260205f20905b81548152906001019060200180831161150557829003601f168201915b505050505081525050815260200190600101906112e8565b505050509050919050565b7f000000000000000000000000000000000000000000000000000000000000000081565b6115716115ed565b5f73ffffffffffffffffffffffffffffffffffffffff168173ffffffffffffffffffffffffffffffffffffffff16036115e1575f6040517f1e4fbdf70000000000000000000000000000000000000000000000000000000081526004016115d89190611d33565b60405180910390fd5b6115ea81611674565b50565b6115f56118a0565b73ffffffffffffffffffffffffffffffffffffffff16611613610cd4565b73ffffffffffffffffffffffffffffffffffffffff1614611672576116366118a0565b6040517f118cdaa70000000000000000000000000000000000000000000000000000000081526004016116699190611d33565b60405180910390fd5b565b5f805f9054906101000a900473ffffffffffffffffffffffffffffffffffffffff169050815f806101000a81548173ffffffffffffffffffffffffffffffffffffffff021916908373ffffffffffffffffffffffffffffffffffffffff1602179055508173ffffffffffffffffffffffffffffffffffffffff168173ffffffffffffffffffffffffffffffffffffffff167f8be0079c531659141344cd1fd0a4f28419497f9722a3daafe3b4186f6b6457e060405160405180910390a35050565b61173d6118a7565b5f60ea73ffffffffffffffffffffffffffffffffffffffff1663d0f4b097336040518263ffffffff1660e01b81526004016117789190611d33565b5f60405180830381865afa158015611792573d5f803e3d5ffd5b505050506040513d5f823e3d601f19601f820116820180604052508101906117ba91906129d1565b80925081935050509091565b801561189c575f825f015183602001516040516020016117e7929190612a65565b60405160208183030381529060405280519060200120905060405160200161180e90612b1c565b604051602081830303815290604052805190602001208103611830575061189c565b60405160200161183f90612bcf565b604051602081830303815290604052805190602001208103611861575061189c565b6040517f08c379a000000000000000000000000000000000000000000000000000000000815260040161189390612c38565b60405180910390fd5b5050565b5f33905090565b60405180606001604052806060815260200160608152602001606081525090565b5f604051905090565b5f80fd5b5f80fd5b5f819050919050565b6118eb816118d9565b81146118f5575f80fd5b50565b5f81359050611906816118e2565b92915050565b5f60208284031215611921576119206118d1565b5b5f61192e848285016118f8565b91505092915050565b611940816118d9565b82525050565b5f6020820190506119595f830184611937565b92915050565b5f73ffffffffffffffffffffffffffffffffffffffff82169050919050565b5f6119888261195f565b9050919050565b6119988161197e565b81146119a2575f80fd5b50565b5f813590506119b38161198f565b92915050565b5f602082840312156119ce576119cd6118d1565b5b5f6119db848285016119a5565b91505092915050565b5f81519050919050565b5f82825260208201905092915050565b5f819050602082019050919050565b611a16816118d9565b82525050565b5f611a278383611a0d565b60208301905092915050565b5f602082019050919050565b5f611a49826119e4565b611a5381856119ee565b9350611a5e836119fe565b805f5b83811015611a8e578151611a758882611a1c565b9750611a8083611a33565b925050600181019050611a61565b5085935050505092915050565b5f81519050919050565b5f82825260208201905092915050565b5f819050602082019050919050565b5f81519050919050565b5f82825260208201905092915050565b5f5b83811015611afb578082015181840152602081019050611ae0565b5f8484015250505050565b5f601f19601f8301169050919050565b5f611b2082611ac4565b611b2a8185611ace565b9350611b3a818560208601611ade565b611b4381611b06565b840191505092915050565b5f611b598383611b16565b905092915050565b5f602082019050919050565b5f611b7782611a9b565b611b818185611aa5565b935083602082028501611b9385611ab5565b805f5b85811015611bce5784840389528151611baf8582611b4e565b9450611bba83611b61565b925060208a01995050600181019050611b96565b50829750879550505050505092915050565b5f6080820190508181035f830152611bf88187611a3f565b90508181036020830152611c0c8186611a3f565b90508181036040830152611c208185611b6d565b90508181036060830152611c348184611a3f565b905095945050505050565b5f819050919050565b5f611c62611c5d611c588461195f565b611c3f565b61195f565b9050919050565b5f611c7382611c48565b9050919050565b5f611c8482611c69565b9050919050565b611c9481611c7a565b82525050565b5f602082019050611cad5f830184611c8b565b92915050565b5f8060408385031215611cc957611cc86118d1565b5b5f611cd6858286016119a5565b9250506020611ce7858286016118f8565b9150509250929050565b5f8115159050919050565b611d0581611cf1565b82525050565b5f602082019050611d1e5f830184611cfc565b92915050565b611d2d8161197e565b82525050565b5f602082019050611d465f830184611d24565b92915050565b5f80fd5b5f80fd5b5f80fd5b5f8083601f840112611d6d57611d6c611d4c565b5b8235905067ffffffffffffffff811115611d8a57611d89611d50565b5b602083019150836001820283011115611da657611da5611d54565b5b9250929050565b5f805f8060608587031215611dc557611dc46118d1565b5b5f611dd2878288016118f8565b9450506020611de3878288016118f8565b935050604085013567ffffffffffffffff811115611e0457611e036118d5565b5b611e1087828801611d58565b925092505092959194509250565b5f81519050919050565b5f82825260208201905092915050565b5f819050602082019050919050565b611e508161197e565b82525050565b5f60e083015f830151611e6b5f860182611e47565b506020830151611e7e6020860182611a0d565b506040830151611e916040860182611a0d565b5060608301518482036060860152611ea98282611b16565b9150506080830151611ebe6080860182611a0d565b5060a083015184820360a0860152611ed68282611b16565b91505060c083015184820360c0860152611ef08282611b16565b9150508091505092915050565b5f611f088383611e56565b905092915050565b5f602082019050919050565b5f611f2682611e1e565b611f308185611e28565b935083602082028501611f4285611e38565b805f5b85811015611f7d5784840389528151611f5e8582611efd565b9450611f6983611f10565b925060208a01995050600181019050611f45565b50829750879550505050505092915050565b5f6020820190508181035f830152611fa78184611f1c565b905092915050565b5f611fb982611c69565b9050919050565b611fc981611faf565b82525050565b5f602082019050611fe25f830184611fc0565b92915050565b5f81519050611ff6816118e2565b92915050565b5f60208284031215612011576120106118d1565b5b5f61201e84828501611fe8565b91505092915050565b7f4e487b71000000000000000000000000000000000000000000000000000000005f52604160045260245ffd5b7f4e487b71000000000000000000000000000000000000000000000000000000005f52602260045260245ffd5b5f600282049050600182168061209857607f821691505b6020821081036120ab576120aa612054565b5b50919050565b7f4e487b71000000000000000000000000000000000000000000000000000000005f52603260045260245ffd5b7f4e487b71000000000000000000000000000000000000000000000000000000005f52601160045260245ffd5b5f612115826118d9565b91507fffffffffffffffffffffffffffffffffffffffffffffffffffffffffffffffff8203612147576121466120de565b5b600182019050919050565b5f815190506121608161198f565b92915050565b5f6020828403121561217b5761217a6118d1565b5b5f61218884828501612152565b91505092915050565b5f82825260208201905092915050565b7f50726f706572747920646f6573206e6f742065786973740000000000000000005f82015250565b5f6121d5601783612191565b91506121e0826121a1565b602082019050919050565b5f6020820190508181035f830152612202816121c9565b9050919050565b7f526174696e67206d757374206265206265747765656e203120616e64203500005f82015250565b5f61223d601e83612191565b915061224882612209565b602082019050919050565b5f6020820190508181035f83015261226a81612231565b9050919050565b7f596f75206861766520616c7265616479207265766965776564207468697320705f8201527f726f706572747900000000000000000000000000000000000000000000000000602082015250565b5f6122cb602783612191565b91506122d682612271565b604082019050919050565b5f6020820190508181035f8301526122f8816122bf565b9050919050565b5f819050815f5260205f209050919050565b5f6020601f8301049050919050565b5f82821b905092915050565b5f6008830261235b7fffffffffffffffffffffffffffffffffffffffffffffffffffffffffffffffff82612320565b6123658683612320565b95508019841693508086168417925050509392505050565b5f61239761239261238d846118d9565b611c3f565b6118d9565b9050919050565b5f819050919050565b6123b08361237d565b6123c46123bc8261239e565b84845461232c565b825550505050565b5f90565b6123d86123cc565b6123e38184846123a7565b505050565b5b81811015612406576123fb5f826123d0565b6001810190506123e9565b5050565b601f82111561244b5761241c816122ff565b61242584612311565b81016020851015612434578190505b61244861244085612311565b8301826123e8565b50505b505050565b5f82821c905092915050565b5f61246b5f1984600802612450565b1980831691505092915050565b5f612483838361245c565b9150826002028217905092915050565b61249c82611ac4565b67ffffffffffffffff8111156124b5576124b4612027565b5b6124bf8254612081565b6124ca82828561240a565b5f60209050601f8311600181146124fb575f84156124e9578287015190505b6124f38582612478565b86555061255a565b601f198416612509866122ff565b5f5b828110156125305784890151825560018201915060208501945060208101905061250b565b8683101561254d5784890151612549601f89168261245c565b8355505b6001600288020188555050505b505050505050565b5f61256c826118d9565b9150612577836118d9565b925082820190508082111561258f5761258e6120de565b5b92915050565b5f61259f826118d9565b91506125aa836118d9565b92508282026125b8816118d9565b915082820484148315176125cf576125ce6120de565b5b5092915050565b7f4e487b71000000000000000000000000000000000000000000000000000000005f52601260045260245ffd5b5f61260d826118d9565b9150612618836118d9565b925082612628576126276125d6565b5b828204905092915050565b828183375f83830152505050565b5f61264c8385612191565b9350612659838584612633565b61266283611b06565b840190509392505050565b5f61267782611ac4565b6126818185612191565b9350612691818560208601611ade565b61269a81611b06565b840191505092915050565b5f60a0820190506126b85f830189611937565b81810360208301526126cb818789612641565b905081810360408301526126df818661266d565b905081810360608301526126f3818561266d565b90506127026080830184611937565b979650505050505050565b5f819050919050565b5f61273061272b6127268461270d565b611c3f565b6118d9565b9050919050565b61274081612716565b82525050565b5f6020820190506127595f830184612737565b92915050565b5f80fd5b61276c82611b06565b810181811067ffffffffffffffff8211171561278b5761278a612027565b5b80604052505050565b5f61279d6118c8565b90506127a98282612763565b919050565b5f80fd5b5f80fd5b5f67ffffffffffffffff8211156127d0576127cf612027565b5b6127d982611b06565b9050602081019050919050565b5f6127f86127f3846127b6565b612794565b905082815260208101848484011115612814576128136127b2565b5b61281f848285611ade565b509392505050565b5f82601f83011261283b5761283a611d4c565b5b815161284b8482602086016127e6565b91505092915050565b5f67ffffffffffffffff82111561286e5761286d612027565b5b61287782611b06565b9050602081019050919050565b5f61289661289184612854565b612794565b9050828152602081018484840111156128b2576128b16127b2565b5b6128bd848285611ade565b509392505050565b5f82601f8301126128d9576128d8611d4c565b5b81516128e9848260208601612884565b91505092915050565b5f606082840312156129075761290661275f565b5b6129116060612794565b90505f82015167ffffffffffffffff8111156129305761292f6127ae565b5b61293c84828501612827565b5f83015250602082015167ffffffffffffffff81111561295f5761295e6127ae565b5b61296b84828501612827565b602083015250604082015167ffffffffffffffff81111561298f5761298e6127ae565b5b61299b848285016128c5565b60408301525092915050565b6129b081611cf1565b81146129ba575f80fd5b50565b5f815190506129cb816129a7565b92915050565b5f80604083850312156129e7576129e66118d1565b5b5f83015167ffffffffffffffff811115612a0457612a036118d5565b5b612a10858286016128f2565b9250506020612a21858286016129bd565b9150509250929050565b5f81905092915050565b5f612a3f82611ac4565b612a498185612a2b565b9350612a59818560208601611ade565b80840191505092915050565b5f612a708285612a35565b9150612a7c8284612a35565b91508190509392505050565b7f736f6c616e6100000000000000000000000000000000000000000000000000005f82015250565b5f612abc600683612a2b565b9150612ac782612a88565b600682019050919050565b7f457457545241425a61597136694d6665594b6f755275313636565532787161315f82015250565b5f612b06602083612a2b565b9150612b1182612ad2565b602082019050919050565b5f612b2682612ab0565b9150612b3182612afa565b9150819050919050565b7f65697031353500000000000000000000000000000000000000000000000000005f82015250565b5f612b6f600683612a2b565b9150612b7a82612b3b565b600682019050919050565b7f31313135353131310000000000000000000000000000000000000000000000005f82015250565b5f612bb9600883612a2b565b9150612bc482612b85565b600882019050919050565b5f612bd982612b63565b9150612be482612bad565b9150819050919050565b7f496e76616c696420636861696e000000000000000000000000000000000000005f82015250565b5f612c22600d83612191565b9150612c2d82612bee565b602082019050919050565b5f6020820190508181035f830152612c4f81612c16565b905091905056fea2646970667358221220e437d2f28bb291ac093b84b053a29bbb406b1f3369633572bfff7849d008671564736f6c63430008160033","linkReferences":{}},"methodIdentifiers":{"getAverageRating(uint256)":"17b7e03e","getPropertyReviews(uint256)":"ad834ff0","getReviewCount(uint256)":"5d75135a","getUserReviews(address)":"18d0e8b2","getUserTotalReviews(address)":"43ae612d","hasUserReviewed(address,uint256)":"3f3b9b0c","owner()":"8da5cb5b","pbToken()":"bb27173e","propertyNFT()":"37f76838","renounceOwnership()":"715018a6","submitReview(uint256,uint256,string)":"9f54b729","transferOwnership(address)":"f2fde38b"},"id":20}