{"abi":[{"type":"constructor","inputs":[{"name":"initialOwner","type":"address","internalType":"address"}],"stateMutability":"nonpayable"},{"type":"function","name":"INITIAL_SUPPLY","inputs":[],"outputs":[{"name":"","type":"uint256","internalType":"uint256"}],"stateMutability":"view"},{"type":"function","name":"REWARD_PER_REVIEW","inputs":[],"outputs":[{"name":"","type":"uint256","internalType":"uint256"}],"stateMutability":"view"},{"type":"function","name":"allowance","inputs":[{"name":"owner","type":"address","internalType":"address"},{"name":"spender","type":"address","internalType":"address"}],"outputs":[{"name":"","type":"uint256","internalType":"uint256"}],"stateMutability":"view"},{"type":"function","name":"approve","inputs":[{"name":"spender","type":"address","internalType":"address"},{"name":"value","type":"uint256","internalType":"uint256"}],"outputs":[{"name":"","type":"bool","internalType":"bool"}],"stateMutability":"nonpayable"},{"type":"function","name":"balanceOf","inputs":[{"name":"account","type":"address","internalType":"address"}],"outputs":[{"name":"","type":"uint256","internalType":"uint256"}],"stateMutability":"view"},{"type":"function","name":"burn","inputs":[{"name":"amount","type":"uint256","internalType":"uint256"}],"outputs":[],"stateMutability":"nonpayable"},{"type":"function","name":"decimals","inputs":[],"outputs":[{"name":"","type":"uint8","internalType":"uint8"}],"stateMutability":"view"},{"type":"function","name":"getUserReviewCount","inputs":[{"name":"user","type":"address","internalType":"address"}],"outputs":[{"name":"","type":"uint256","internalType":"uint256"}],"stateMutability":"view"},{"type":"function","name":"mint","inputs":[{"name":"to","type":"address","internalType":"address"},{"name":"amount","type":"uint256","internalType":"uint256"}],"outputs":[],"stateMutability":"nonpayable"},{"type":"function","name":"name","inputs":[],"outputs":[{"name":"","type":"string","internalType":"string"}],"stateMutability":"view"},{"type":"function","name":"owner","inputs":[],"outputs":[{"name":"","type":"address","internalType":"address"}],"stateMutability":"view"},{"type":"function","name":"renounceOwnership","inputs":[],"outputs":[],"stateMutability":"nonpayable"},{"type":"function","name":"rewardForReview","inputs":[{"name":"reviewer","type":"address","internalType":"address"}],"outputs":[],"stateMutability":"nonpayable"},{"type":"function","name":"symbol","inputs":[],"outputs":[{"name":"","type":"string","internalType":"string"}],"stateMutability":"view"},{"type":"function","name":"totalSupply","inputs":[],"outputs":[{"name":"","type":"uint256","internalType":"uint256"}],"stateMutability":"view"},{"type":"function","name":"transfer","inputs":[{"name":"to","type":"address","internalType":"address"},{"name":"value","type":"uint256","internalType":"uint256"}],"outputs":[{"name":"","type":"bool","internalType":"bool"}],"stateMutability":"nonpayable"},{"type":"function","name":"transferFrom","inputs":[{"name":"from","type":"address","internalType":"address"},{"name":"to","type":"address","internalType":"address"},{"name":"value","type":"uint256","internalType":"uint256"}],"outputs":[{"name":"","type":"bool","internalType":"bool"}],"stateMutability":"nonpayable"},{"type":"function","name":"transferOwnership","inputs":[{"name":"newOwner","type":"address","internalType":"address"}],"outputs":[],"stateMutability":"nonpayable"},{"type":"function","name":"userReviewCount","inputs":[{"name":"","type":"address","internalType":"address"}],"outputs":[{"name":"","type":"uint256","internalType":"uint256"}],"stateMutability":"view"},{"type":"event","name":"Approval","inputs":[{"name":"owner","type":"address","indexed":true,"internalType":"address"},{"name":"spender","type":"address","indexed":true,"internalType":"address"},{"name":"value","type":"uint256","indexed":false,"internalType":"uint256"}],"anonymous":false},{"type":"event","name":"OwnershipTransferred","inputs":[{"name":"previousOwner","type":"address","indexed":true,"internalType":"address"},{"name":"newOwner","type":"address","indexed":true,"internalType":"address"}],"anonymous":false},{"type":"event","name":"TokensRewarded","inputs":[{"name":"user","type":"address","indexed":true,"internalType":"address"},{"name":"amount","type":"uint256","indexed":false,"internalType":"uint256"},{"name":"reason","type":"string","indexed":false,"internalType":"string"}],"anonymous":false},{"type":"event","name":"Transfer","inputs":[{"name":"from","type":"address","indexed":true,"internalType":"address"},{"name":"to","type":"address","indexed":true,"internalType":"address"},{"name":"value","type":"uint256","indexed":false,"internalType":"uint256"}],"anonymous":false},{"type":"error","name":"ERC20InsufficientAllowance","inputs":[{"name":"spender","type":"address","internalType":"address"},{"name":"allowance","type":"uint256","internalType":"uint256"},{"name":"needed","type":"uint256","internalType":"uint256"}]},{"type":"error","name":"ERC20InsufficientBalance","inputs":[{"name":"sender","type":"address","internalType":"address"},{"name":"balance","type":"uint256","internalType":"uint256"},{"name":"needed","type":"uint256","internalType":"uint256"}]},{"type":"error","name":"ERC20InvalidApprover","inputs":[{"name":"approver","type":"address","internalType":"address"}]},{"type":"error","name":"ERC20InvalidReceiver","inputs":[{"name":"receiver","type":"address","internalType":"address"}]},{"type":"error","name":"ERC20InvalidSender","inputs":[{"name":"sender","type":"address","internalType":"address"}]},{"type":"error","name":"ERC20InvalidSpender","inputs":[{"name":"spender","type":"address","internalType":"address"}]},{"type":"error","name":"OwnableInvalidOwner","inputs":[{"name":"owner","type":"address","internalType":"address"}]},{"type":"error","name":"OwnableUnauthorizedAccount","inputs":[{"name":"account","type":"address","internalType":"address"}]}],"bytecode":{"object":"0x608060405234801562000010575f80fd5b5060405162001ed938038062001ed9833981810160405281019062000036919062000547565b806040518060400160405280600a81526020017f50757368427269636b73000000000000000000000000000000000000000000008152506040518060400160405280600281526020017f50420000000000000000000000000000000000000000000000000000000000008152508160039081620000b49190620007db565b508060049081620000c69190620007db565b5050505f73ffffffffffffffffffffffffffffffffffffffff168173ffffffffffffffffffffffffffffffffffffffff16036200013c575f6040517f1e4fbdf7000000000000000000000000000000000000000000000000000000008152600401620001339190620008d0565b60405180910390fd5b6200014d816200017160201b60201c565b506200016a8169d3c21bcecceda10000006200023460201b60201c565b50620009b9565b5f60055f9054906101000a900473ffffffffffffffffffffffffffffffffffffffff1690508160055f6101000a81548173ffffffffffffffffffffffffffffffffffffffff021916908373ffffffffffffffffffffffffffffffffffffffff1602179055508173ffffffffffffffffffffffffffffffffffffffff168173ffffffffffffffffffffffffffffffffffffffff167f8be0079c531659141344cd1fd0a4f28419497f9722a3daafe3b4186f6b6457e060405160405180910390a35050565b5f73ffffffffffffffffffffffffffffffffffffffff168273ffffffffffffffffffffffffffffffffffffffff1603620002a7575f6040517fec442f050000000000000000000000000000000000000000000000000000000081526004016200029e9190620008d0565b60405180910390fd5b620002ba5f8383620002be60201b60201c565b5050565b5f73ffffffffffffffffffffffffffffffffffffffff168373ffffffffffffffffffffffffffffffffffffffff160362000312578060025f82825462000305919062000918565b92505081905550620003e3565b5f805f8573ffffffffffffffffffffffffffffffffffffffff1673ffffffffffffffffffffffffffffffffffffffff1681526020019081526020015f20549050818110156200039e578381836040517fe450d38c000000000000000000000000000000000000000000000000000000008152600401620003959392919062000963565b60405180910390fd5b8181035f808673ffffffffffffffffffffffffffffffffffffffff1673ffffffffffffffffffffffffffffffffffffffff1681526020019081526020015f2081905550505b5f73ffffffffffffffffffffffffffffffffffffffff168273ffffffffffffffffffffffffffffffffffffffff16036200042c578060025f828254039250508190555062000476565b805f808473ffffffffffffffffffffffffffffffffffffffff1673ffffffffffffffffffffffffffffffffffffffff1681526020019081526020015f205f82825401925050819055505b8173ffffffffffffffffffffffffffffffffffffffff168373ffffffffffffffffffffffffffffffffffffffff167fddf252ad1be2c89b69c2b068fc378daa952ba7f163c4a11628f55a4df523b3ef83604051620004d591906200099e565b60405180910390a3505050565b5f80fd5b5f73ffffffffffffffffffffffffffffffffffffffff82169050919050565b5f6200051182620004e6565b9050919050565b620005238162000505565b81146200052e575f80fd5b50565b5f81519050620005418162000518565b92915050565b5f602082840312156200055f576200055e620004e2565b5b5f6200056e8482850162000531565b91505092915050565b5f81519050919050565b7f4e487b71000000000000000000000000000000000000000000000000000000005f52604160045260245ffd5b7f4e487b71000000000000000000000000000000000000000000000000000000005f52602260045260245ffd5b5f6002820490506001821680620005f357607f821691505b602082108103620006095762000608620005ae565b5b50919050565b5f819050815f5260205f209050919050565b5f6020601f8301049050919050565b5f82821b905092915050565b5f600883026200066d7fffffffffffffffffffffffffffffffffffffffffffffffffffffffffffffffff8262000630565b62000679868362000630565b95508019841693508086168417925050509392505050565b5f819050919050565b5f819050919050565b5f620006c3620006bd620006b78462000691565b6200069a565b62000691565b9050919050565b5f819050919050565b620006de83620006a3565b620006f6620006ed82620006ca565b8484546200063c565b825550505050565b5f90565b6200070c620006fe565b62000719818484620006d3565b505050565b5b818110156200074057620007345f8262000702565b6001810190506200071f565b5050565b601f8211156200078f5762000759816200060f565b620007648462000621565b8101602085101562000774578190505b6200078c620007838562000621565b8301826200071e565b50505b505050565b5f82821c905092915050565b5f620007b15f198460080262000794565b1980831691505092915050565b5f620007cb8383620007a0565b9150826002028217905092915050565b620007e68262000577565b67ffffffffffffffff81111562000802576200080162000581565b5b6200080e8254620005db565b6200081b82828562000744565b5f60209050601f83116001811462000851575f84156200083c578287015190505b620008488582620007be565b865550620008b7565b601f19841662000861866200060f565b5f5b828110156200088a5784890151825560018201915060208501945060208101905062000863565b86831015620008aa5784890151620008a6601f891682620007a0565b8355505b6001600288020188555050505b505050505050565b620008ca8162000505565b82525050565b5f602082019050620008e55f830184620008bf565b92915050565b7f4e487b71000000000000000000000000000000000000000000000000000000005f52601160045260245ffd5b5f620009248262000691565b9150620009318362000691565b92508282019050808211156200094c576200094b620008eb565b5b92915050565b6200095d8162000691565b82525050565b5f606082019050620009785f830186620008bf565b62000987602083018562000952565b62000996604083018462000952565b949350505050565b5f602082019050620009b35f83018462000952565b92915050565b61151280620009c75f395ff3fe608060405234801561000f575f80fd5b506004361061011f575f3560e01c806340c10f19116100ab5780638da5cb5b1161006f5780638da5cb5b1461030757806395d89b4114610325578063a9059cbb14610343578063dd62ed3e14610373578063f2fde38b146103a35761011f565b806340c10f191461027757806342966c681461029357806349cde182146102af57806370a08231146102cd578063715018a6146102fd5761011f565b806318160ddd116100f257806318160ddd146101bd5780631e326211146101db57806323b872dd1461020b5780632ff2e9dc1461023b578063313ce567146102595761011f565b806306fdde0314610123578063095ea7b3146101415780630b1dbd04146101715780630dd27535146101a1575b5f80fd5b61012b6103bf565b60405161013891906110a3565b60405180910390f35b61015b60048036038101906101569190611154565b61044f565b60405161016891906111ac565b60405180910390f35b61018b600480360381019061018691906111c5565b610471565b60405161019891906111ff565b60405180910390f35b6101bb60048036038101906101b691906111c5565b6104b7565b005b6101c561057c565b6040516101d291906111ff565b60405180910390f35b6101f560048036038101906101f091906111c5565b610585565b60405161020291906111ff565b60405180910390f35b61022560048036038101906102209190611218565b61059a565b60405161023291906111ac565b60405180910390f35b6102436105c8565b60405161025091906111ff565b60405180910390f35b6102616105d6565b60405161026e9190611283565b60405180910390f35b610291600480360381019061028c9190611154565b6105de565b005b6102ad60048036038101906102a8919061129c565b6105f4565b005b6102b7610609565b6040516102c491906111ff565b60405180910390f35b6102e760048036038101906102e291906111c5565b610615565b6040516102f491906111ff565b60405180910390f35b61030561065a565b005b61030f61066d565b60405161031c91906112d6565b60405180910390f35b61032d610695565b60405161033a91906110a3565b60405180910390f35b61035d60048036038101906103589190611154565b610725565b60405161036a91906111ac565b60405180910390f35b61038d600480360381019061038891906112ef565b610747565b60405161039a91906111ff565b60405180910390f35b6103bd60048036038101906103b891906111c5565b6107c9565b005b6060600380546103ce9061135a565b80601f01602080910402602001604051908101604052809291908181526020018280546103fa9061135a565b80156104455780601f1061041c57610100808354040283529160200191610445565b820191905f5260205f20905b81548152906001019060200180831161042857829003601f168201915b5050505050905090565b5f8061045961084d565b9050610466818585610854565b600191505092915050565b5f60065f8373ffffffffffffffffffffffffffffffffffffffff1673ffffffffffffffffffffffffffffffffffffffff1681526020019081526020015f20549050919050565b6104bf610866565b60065f8273ffffffffffffffffffffffffffffffffffffffff1673ffffffffffffffffffffffffffffffffffffffff1681526020019081526020015f205f81548092919061050c906113b7565b919050555061052381674563918244f400006108ed565b8073ffffffffffffffffffffffffffffffffffffffff167fb969d134776a7f04430dbbcac4e68734b1c6c5adcecbf68c3cbe6a9a4f2c8a1d674563918244f400006040516105719190611448565b60405180910390a250565b5f600254905090565b6006602052805f5260405f205f915090505481565b5f806105a461084d565b90506105b185828561096c565b6105bc8585856109ff565b60019150509392505050565b69d3c21bcecceda100000081565b5f6012905090565b6105e6610866565b6105f082826108ed565b5050565b6105fc610866565b6106063382610aef565b50565b674563918244f4000081565b5f805f8373ffffffffffffffffffffffffffffffffffffffff1673ffffffffffffffffffffffffffffffffffffffff1681526020019081526020015f20549050919050565b610662610866565b61066b5f610b6e565b565b5f60055f9054906101000a900473ffffffffffffffffffffffffffffffffffffffff16905090565b6060600480546106a49061135a565b80601f01602080910402602001604051908101604052809291908181526020018280546106d09061135a565b801561071b5780601f106106f25761010080835404028352916020019161071b565b820191905f5260205f20905b8154815290600101906020018083116106fe57829003601f168201915b5050505050905090565b5f8061072f61084d565b905061073c8185856109ff565b600191505092915050565b5f60015f8473ffffffffffffffffffffffffffffffffffffffff1673ffffffffffffffffffffffffffffffffffffffff1681526020019081526020015f205f8373ffffffffffffffffffffffffffffffffffffffff1673ffffffffffffffffffffffffffffffffffffffff1681526020019081526020015f2054905092915050565b6107d1610866565b5f73ffffffffffffffffffffffffffffffffffffffff168173ffffffffffffffffffffffffffffffffffffffff1603610841575f6040517f1e4fbdf700000000000000000000000000000000000000000000000000000000815260040161083891906112d6565b60405180910390fd5b61084a81610b6e565b50565b5f33905090565b6108618383836001610c31565b505050565b61086e61084d565b73ffffffffffffffffffffffffffffffffffffffff1661088c61066d565b73ffffffffffffffffffffffffffffffffffffffff16146108eb576108af61084d565b6040517f118cdaa70000000000000000000000000000000000000000000000000000000081526004016108e291906112d6565b60405180910390fd5b565b5f73ffffffffffffffffffffffffffffffffffffffff168273ffffffffffffffffffffffffffffffffffffffff160361095d575f6040517fec442f0500000000000000000000000000000000000000000000000000000000815260040161095491906112d6565b60405180910390fd5b6109685f8383610e00565b5050565b5f6109778484610747565b90507fffffffffffffffffffffffffffffffffffffffffffffffffffffffffffffffff8110156109f957818110156109ea578281836040517ffb8f41b20000000000000000000000000000000000000000000000000000000081526004016109e193929190611474565b60405180910390fd5b6109f884848484035f610c31565b5b50505050565b5f73ffffffffffffffffffffffffffffffffffffffff168373ffffffffffffffffffffffffffffffffffffffff1603610a6f575f6040517f96c6fd1e000000000000000000000000000000000000000000000000000000008152600401610a6691906112d6565b60405180910390fd5b5f73ffffffffffffffffffffffffffffffffffffffff168273ffffffffffffffffffffffffffffffffffffffff1603610adf575f6040517fec442f05000000000000000000000000000000000000000000000000000000008152600401610ad691906112d6565b60405180910390fd5b610aea838383610e00565b505050565b5f73ffffffffffffffffffffffffffffffffffffffff168273ffffffffffffffffffffffffffffffffffffffff1603610b5f575f6040517f96c6fd1e000000000000000000000000000000000000000000000000000000008152600401610b5691906112d6565b60405180910390fd5b610b6a825f83610e00565b5050565b5f60055f9054906101000a900473ffffffffffffffffffffffffffffffffffffffff1690508160055f6101000a81548173ffffffffffffffffffffffffffffffffffffffff021916908373ffffffffffffffffffffffffffffffffffffffff1602179055508173ffffffffffffffffffffffffffffffffffffffff168173ffffffffffffffffffffffffffffffffffffffff167f8be0079c531659141344cd1fd0a4f28419497f9722a3daafe3b4186f6b6457e060405160405180910390a35050565b5f73ffffffffffffffffffffffffffffffffffffffff168473ffffffffffffffffffffffffffffffffffffffff1603610ca1575f6040517fe602df05000000000000000000000000000000000000000000000000000000008152600401610c9891906112d6565b60405180910390fd5b5f73ffffffffffffffffffffffffffffffffffffffff168373ffffffffffffffffffffffffffffffffffffffff1603610d11575f6040517f94280d62000000000000000000000000000000000000000000000000000000008152600401610d0891906112d6565b60405180910390fd5b8160015f8673ffffffffffffffffffffffffffffffffffffffff1673ffffffffffffffffffffffffffffffffffffffff1681526020019081526020015f205f8573ffffffffffffffffffffffffffffffffffffffff1673ffffffffffffffffffffffffffffffffffffffff1681526020019081526020015f20819055508015610dfa578273ffffffffffffffffffffffffffffffffffffffff168473ffffffffffffffffffffffffffffffffffffffff167f8c5be1e5ebec7d5bd14f71427d1e84f3dd0314c0f7b2291e5b200ac8c7c3b92584604051610df191906111ff565b60405180910390a35b50505050565b5f73ffffffffffffffffffffffffffffffffffffffff168373ffffffffffffffffffffffffffffffffffffffff1603610e50578060025f828254610e4491906114a9565b92505081905550610f1e565b5f805f8573ffffffffffffffffffffffffffffffffffffffff1673ffffffffffffffffffffffffffffffffffffffff1681526020019081526020015f2054905081811015610ed9578381836040517fe450d38c000000000000000000000000000000000000000000000000000000008152600401610ed093929190611474565b60405180910390fd5b8181035f808673ffffffffffffffffffffffffffffffffffffffff1673ffffffffffffffffffffffffffffffffffffffff1681526020019081526020015f2081905550505b5f73ffffffffffffffffffffffffffffffffffffffff168273ffffffffffffffffffffffffffffffffffffffff1603610f65578060025f8282540392505081905550610faf565b805f808473ffffffffffffffffffffffffffffffffffffffff1673ffffffffffffffffffffffffffffffffffffffff1681526020019081526020015f205f82825401925050819055505b8173ffffffffffffffffffffffffffffffffffffffff168373ffffffffffffffffffffffffffffffffffffffff167fddf252ad1be2c89b69c2b068fc378daa952ba7f163c4a11628f55a4df523b3ef8360405161100c91906111ff565b60405180910390a3505050565b5f81519050919050565b5f82825260208201905092915050565b5f5b83811015611050578082015181840152602081019050611035565b5f8484015250505050565b5f601f19601f8301169050919050565b5f61107582611019565b61107f8185611023565b935061108f818560208601611033565b6110988161105b565b840191505092915050565b5f6020820190508181035f8301526110bb818461106b565b905092915050565b5f80fd5b5f73ffffffffffffffffffffffffffffffffffffffff82169050919050565b5f6110f0826110c7565b9050919050565b611100816110e6565b811461110a575f80fd5b50565b5f8135905061111b816110f7565b92915050565b5f819050919050565b61113381611121565b811461113d575f80fd5b50565b5f8135905061114e8161112a565b92915050565b5f806040838503121561116a576111696110c3565b5b5f6111778582860161110d565b925050602061118885828601611140565b9150509250929050565b5f8115159050919050565b6111a681611192565b82525050565b5f6020820190506111bf5f83018461119d565b92915050565b5f602082840312156111da576111d96110c3565b5b5f6111e78482850161110d565b91505092915050565b6111f981611121565b82525050565b5f6020820190506112125f8301846111f0565b92915050565b5f805f6060848603121561122f5761122e6110c3565b5b5f61123c8682870161110d565b935050602061124d8682870161110d565b925050604061125e86828701611140565b9150509250925092565b5f60ff82169050919050565b61127d81611268565b82525050565b5f6020820190506112965f830184611274565b92915050565b5f602082840312156112b1576112b06110c3565b5b5f6112be84828501611140565b91505092915050565b6112d0816110e6565b82525050565b5f6020820190506112e95f8301846112c7565b92915050565b5f8060408385031215611305576113046110c3565b5b5f6113128582860161110d565b92505060206113238582860161110d565b9150509250929050565b7f4e487b71000000000000000000000000000000000000000000000000000000005f52602260045260245ffd5b5f600282049050600182168061137157607f821691505b6020821081036113845761138361132d565b5b50919050565b7f4e487b71000000000000000000000000000000000000000000000000000000005f52601160045260245ffd5b5f6113c182611121565b91507fffffffffffffffffffffffffffffffffffffffffffffffffffffffffffffffff82036113f3576113f261138a565b5b600182019050919050565b7f50726f70657274792052657669657700000000000000000000000000000000005f82015250565b5f611432600f83611023565b915061143d826113fe565b602082019050919050565b5f60408201905061145b5f8301846111f0565b818103602083015261146c81611426565b905092915050565b5f6060820190506114875f8301866112c7565b61149460208301856111f0565b6114a160408301846111f0565b949350505050565b5f6114b382611121565b91506114be83611121565b92508282019050808211156114d6576114d561138a565b5b9291505056fea2646970667358221220c36a4aa7a44d370c99d38e0ce2d2089e53ae2ebccc2848e47d86a057868af3ea64736f6c63430008160033","linkReferences":{}},"methodIdentifiers":{"INITIAL_SUPPLY()":"2ff2e9dc","REWARD_PER_REVIEW()":"49cde182","allowance(address,address)":"dd62ed3e","approve(address,uint256)":"095ea7b3","balanceOf(address)":"70a08231","burn(uint256)":"42966c68","decimals()":"313ce567","getUserReviewCount(address)":"0b1dbd04","mint(address,uint256)":"40c10f19","name()":"06fdde03","owner()":"8da5cb5b","renounceOwnership()":"715018a6","rewardForReview(address)":"0dd27535","symbol()":"95d89b41","totalSupply()":"18160ddd","transfer(address,uint256)":"a9059cbb","transferFrom(address,address,uint256)":"23b872dd","transferOwnership(address)":"f2fde38b","userReviewCount(address)":"1e326211"},"id":23}