{"abi":[{"type":"constructor","inputs":[{"name":"initialOwner","type":"address","internalType":"address"},{"name":"nft","type":"address","internalType":"contract PropertyNFT"}],"stateMutability":"nonpayable"},{"type":"function","name":"createListing","inputs":[{"name":"to","type":"address","internalType":"address"},{"name":"uri","type":"string","internalType":"string"},{"name":"pricing","type":"tuple","internalType":"struct PropertyPricing","components":[{"name":"priceInPC","type":"uint256","internalType":"uint256"},{"name":"priceInStablecoin","type":"uint256","internalType":"uint256"}]}],"outputs":[{"name":"tokenId","type":"uint256","internalType":"uint256"}],"stateMutability":"nonpayable"},{"type":"function","name":"getListing","inputs":[{"name":"tokenId","type":"uint256","internalType":"uint256"}],"outputs":[{"name":"","type":"tuple","internalType":"struct PushBricksRegistry.Listing","components":[{"name":"lister","type":"address","internalType":"address"},{"name":"pricing","type":"tuple","internalType":"struct PropertyPricing","components":[{"name":"priceInPC","type":"uint256","internalType":"uint256"},{"name":"priceInStablecoin","type":"uint256","internalType":"uint256"}]},{"name":"active","type":"bool","internalType":"bool"}]}],"stateMutability":"view"},{"type":"function","name":"getUserNFTCount","inputs":[{"name":"user","type":"address","internalType":"address"}],"outputs":[{"name":"","type":"uint256","internalType":"uint256"}],"stateMutability":"view"},{"type":"function","name":"getUserNFTDetails","inputs":[{"name":"user","type":"address","internalType":"address"}],"outputs":[{"name":"tokenIds","type":"uint256[]","internalType":"uint256[]"},{"name":"metadataURIs","type":"string[]","internalType":"string[]"},{"name":"pricings","type":"tuple[]","internalType":"struct PropertyPricing[]","components":[{"name":"priceInPC","type":"uint256","internalType":"uint256"},{"name":"priceInStablecoin","type":"uint256","internalType":"uint256"}]},{"name":"activeStatuses","type":"bool[]","internalType":"bool[]"}],"stateMutability":"view"},{"type":"function","name":"getUserNFTs","inputs":[{"name":"user","type":"address","internalType":"address"}],"outputs":[{"name":"","type":"uint256[]","internalType":"uint256[]"}],"stateMutability":"view"},{"type":"function","name":"owner","inputs":[],"outputs":[{"name":"","type":"address","internalType":"address"}],"stateMutability":"view"},{"type":"function","name":"propertyNft","inputs":[],"outputs":[{"name":"","type":"address","internalType":"contract PropertyNFT"}],"stateMutability":"view"},{"type":"function","name":"renounceOwnership","inputs":[],"outputs":[],"stateMutability":"nonpayable"},{"type":"function","name":"setListingActive","inputs":[{"name":"tokenId","type":"uint256","internalType":"uint256"},{"name":"active","type":"bool","internalType":"bool"}],"outputs":[],"stateMutability":"nonpayable"},{"type":"function","name":"transferOwnership","inputs":[{"name":"newOwner","type":"address","internalType":"address"}],"outputs":[],"stateMutability":"nonpayable"},{"type":"function","name":"updateListingPricing","inputs":[{"name":"tokenId","type":"uint256","internalType":"uint256"},{"name":"pricing","type":"tuple","internalType":"struct PropertyPricing","components":[{"name":"priceInPC","type":"uint256","internalType":"uint256"},{"name":"priceInStablecoin","type":"uint256","internalType":"uint256"}]}],"outputs":[],"stateMutability":"nonpayable"},{"type":"event","name":"ListingCreated","inputs":[{"name":"tokenId","type":"uint256","indexed":true,"internalType":"uint256"},{"name":"lister","type":"address","indexed":true,"internalType":"address"}],"anonymous":false},{"type":"event","name":"ListingStatusChanged","inputs":[{"name":"tokenId","type":"uint256","indexed":true,"internalType":"uint256"},{"name":"active","type":"bool","indexed":false,"internalType":"bool"}],"anonymous":false},{"type":"event","name":"ListingUpdated","inputs":[{"name":"tokenId","type":"uint256","indexed":true,"internalType":"uint256"}],"anonymous":false},{"type":"event","name":"OwnershipTransferred","inputs":[{"name":"previousOwner","type":"address","indexed":true,"internalType":"address"},{"name":"newOwner","type":"address","indexed":true,"internalType":"address"}],"anonymous":false},{"type":"error","name":"OwnableInvalidOwner","inputs":[{"name":"owner","type":"address","internalType":"address"}]},{"type":"error","name":"OwnableUnauthorizedAccount","inputs":[{"name":"account","type":"address","internalType":"address"}]}],"bytecode":{"object":"0x60a060405234801562000010575f80fd5b506040516200228838038062002288833981810160405281019062000036919062000260565b815f73ffffffffffffffffffffffffffffffffffffffff168173ffffffffffffffffffffffffffffffffffffffff1603620000aa575f6040517f1e4fbdf7000000000000000000000000000000000000000000000000000000008152600401620000a19190620002b6565b60405180910390fd5b620000bb81620000f860201b60201c565b508073ffffffffffffffffffffffffffffffffffffffff1660808173ffffffffffffffffffffffffffffffffffffffff16815250505050620002d1565b5f805f9054906101000a900473ffffffffffffffffffffffffffffffffffffffff169050815f806101000a81548173ffffffffffffffffffffffffffffffffffffffff021916908373ffffffffffffffffffffffffffffffffffffffff1602179055508173ffffffffffffffffffffffffffffffffffffffff168173ffffffffffffffffffffffffffffffffffffffff167f8be0079c531659141344cd1fd0a4f28419497f9722a3daafe3b4186f6b6457e060405160405180910390a35050565b5f80fd5b5f73ffffffffffffffffffffffffffffffffffffffff82169050919050565b5f620001e882620001bd565b9050919050565b620001fa81620001dc565b811462000205575f80fd5b50565b5f815190506200021881620001ef565b92915050565b5f6200022a82620001dc565b9050919050565b6200023c816200021e565b811462000247575f80fd5b50565b5f815190506200025a8162000231565b92915050565b5f8060408385031215620002795762000278620001b9565b5b5f620002888582860162000208565b92505060206200029b858286016200024a565b9150509250929050565b620002b081620001dc565b82525050565b5f602082019050620002cb5f830184620002a5565b92915050565b608051611f66620003225f395f818161023b015281816105470152818161056e0152818161066e0152818161092f01528181610b2301528181610bf601528181610fde01526110920152611f665ff3fe608060405234801561000f575f80fd5b50600436106100a7575f3560e01c80635549756c1161006f5780635549756c14610175578063715018a6146101915780637a0358501461019b5780638da5cb5b146101ce578063b2865e04146101ec578063f2fde38b1461021c576100a7565b806305f772f1146100ab578063107a274a146100db578063236e71a21461010b5780633103d5661461012757806352de4ee514610145575b5f80fd5b6100c560048036038101906100c091906114c8565b610238565b6040516100d29190611551565b60405180910390f35b6100f560048036038101906100f09190611594565b6103aa565b6040516101029190611664565b60405180910390f35b6101256004803603810190610120919061167d565b61046a565b005b61012f610545565b60405161013c9190611716565b60405180910390f35b61015f600480360381019061015a919061172f565b610569565b60405161016c9190611802565b60405180910390f35b61018f600480360381019061018a919061184c565b61080c565b005b610199610913565b005b6101b560048036038101906101b0919061172f565b610926565b6040516101c59493929190611b1f565b60405180910390f35b6101d6610fb3565b6040516101e39190611b8d565b60405180910390f35b6102066004803603810190610201919061172f565b610fda565b6040516102139190611551565b60405180910390f35b6102366004803603810190610231919061172f565b611170565b005b5f7f000000000000000000000000000000000000000000000000000000000000000073ffffffffffffffffffffffffffffffffffffffff1663dc5915578686866040518463ffffffff1660e01b815260040161029693929190611bf0565b6020604051808303815f875af11580156102b2573d5f803e3d5ffd5b505050506040513d601f19601f820116820180604052508101906102d69190611c34565b90508460015f8381526020019081526020015f205f015f6101000a81548173ffffffffffffffffffffffffffffffffffffffff021916908373ffffffffffffffffffffffffffffffffffffffff16021790555061033381836111f4565b6001805f8381526020019081526020015f206003015f6101000a81548160ff0219169083151502179055508473ffffffffffffffffffffffffffffffffffffffff16817f4e0f9c4c10f3933a613addba91d6bd94f54a77e3e2748707ee7fe140aef218c560405160405180910390a3949350505050565b6103b2611385565b60015f8381526020019081526020015f206040518060600160405290815f82015f9054906101000a900473ffffffffffffffffffffffffffffffffffffffff1673ffffffffffffffffffffffffffffffffffffffff1673ffffffffffffffffffffffffffffffffffffffff168152602001600182016040518060400160405290815f82015481526020016001820154815250508152602001600382015f9054906101000a900460ff1615151515815250509050919050565b60015f8381526020019081526020015f205f015f9054906101000a900473ffffffffffffffffffffffffffffffffffffffff1673ffffffffffffffffffffffffffffffffffffffff163373ffffffffffffffffffffffffffffffffffffffff161461050a576040517f08c379a000000000000000000000000000000000000000000000000000000000815260040161050190611ca9565b60405180910390fd5b61051482826111f4565b817fe7d434e73289cca621fd9ee863535d63a2cc7b86e8ee22aa5555ff223c9540cf60405160405180910390a25050565b7f000000000000000000000000000000000000000000000000000000000000000081565b60605f7f000000000000000000000000000000000000000000000000000000000000000073ffffffffffffffffffffffffffffffffffffffff166318160ddd6040518163ffffffff1660e01b8152600401602060405180830381865afa1580156105d5573d5f803e3d5ffd5b505050506040513d601f19601f820116820180604052508101906105f99190611c34565b90505f8167ffffffffffffffff81111561061657610615611cc7565b5b6040519080825280602002602001820160405280156106445781602001602082028036833780820191505090505b5090505f80600190505b838111610761578573ffffffffffffffffffffffffffffffffffffffff167f000000000000000000000000000000000000000000000000000000000000000073ffffffffffffffffffffffffffffffffffffffff16636352211e836040518263ffffffff1660e01b81526004016106c59190611551565b602060405180830381865afa1580156106e0573d5f803e3d5ffd5b505050506040513d601f19601f820116820180604052508101906107049190611d08565b73ffffffffffffffffffffffffffffffffffffffff160361074e578083838151811061073357610732611d33565b5b602002602001018181525050818061074a90611d8d565b9250505b808061075990611d8d565b91505061064e565b505f8167ffffffffffffffff81111561077d5761077c611cc7565b5b6040519080825280602002602001820160405280156107ab5781602001602082028036833780820191505090505b5090505f5b828110156107ff578381815181106107cb576107ca611d33565b5b60200260200101518282815181106107e6576107e5611d33565b5b60200260200101818152505080806001019150506107b0565b5080945050505050919050565b60015f8381526020019081526020015f205f015f9054906101000a900473ffffffffffffffffffffffffffffffffffffffff1673ffffffffffffffffffffffffffffffffffffffff163373ffffffffffffffffffffffffffffffffffffffff16146108ac576040517f08c379a00000000000000000000000000000000000000000000000000000000081526004016108a390611ca9565b60405180910390fd5b8060015f8481526020019081526020015f206003015f6101000a81548160ff021916908315150217905550817f5405ffe1bf594545c72c69e618533af514ff9456a73ea6ac30b47e0b301be001826040516109079190611de3565b60405180910390a25050565b61091b611236565b6109245f6112bd565b565b6060806060805f7f000000000000000000000000000000000000000000000000000000000000000073ffffffffffffffffffffffffffffffffffffffff166318160ddd6040518163ffffffff1660e01b8152600401602060405180830381865afa158015610996573d5f803e3d5ffd5b505050506040513d601f19601f820116820180604052508101906109ba9190611c34565b90505f8167ffffffffffffffff8111156109d7576109d6611cc7565b5b604051908082528060200260200182016040528015610a055781602001602082028036833780820191505090505b5090505f8267ffffffffffffffff811115610a2357610a22611cc7565b5b604051908082528060200260200182016040528015610a5657816020015b6060815260200190600190039081610a415790505b5090505f8367ffffffffffffffff811115610a7457610a73611cc7565b5b604051908082528060200260200182016040528015610aad57816020015b610a9a6113c2565b815260200190600190039081610a925790505b5090505f8467ffffffffffffffff811115610acb57610aca611cc7565b5b604051908082528060200260200182016040528015610af95781602001602082028036833780820191505090505b5090505f80600190505b868111610d65578b73ffffffffffffffffffffffffffffffffffffffff167f000000000000000000000000000000000000000000000000000000000000000073ffffffffffffffffffffffffffffffffffffffff16636352211e836040518263ffffffff1660e01b8152600401610b7a9190611551565b602060405180830381865afa158015610b95573d5f803e3d5ffd5b505050506040513d601f19601f82011682018060405250810190610bb99190611d08565b73ffffffffffffffffffffffffffffffffffffffff1603610d525780868381518110610be857610be7611d33565b5b6020026020010181815250507f000000000000000000000000000000000000000000000000000000000000000073ffffffffffffffffffffffffffffffffffffffff1663c87b56dd826040518263ffffffff1660e01b8152600401610c4d9190611551565b5f60405180830381865afa158015610c67573d5f803e3d5ffd5b505050506040513d5f823e3d601f19601f82011682018060405250810190610c8f9190611ee9565b858381518110610ca257610ca1611d33565b5b602002602001018190525060015f8281526020019081526020015f206001016040518060400160405290815f8201548152602001600182015481525050848381518110610cf257610cf1611d33565b5b602002602001018190525060015f8281526020019081526020015f206003015f9054906101000a900460ff16838381518110610d3157610d30611d33565b5b6020026020010190151590811515815250508180610d4e90611d8d565b9250505b8080610d5d90611d8d565b915050610b03565b508067ffffffffffffffff811115610d8057610d7f611cc7565b5b604051908082528060200260200182016040528015610dae5781602001602082028036833780820191505090505b5099508067ffffffffffffffff811115610dcb57610dca611cc7565b5b604051908082528060200260200182016040528015610dfe57816020015b6060815260200190600190039081610de95790505b5098508067ffffffffffffffff811115610e1b57610e1a611cc7565b5b604051908082528060200260200182016040528015610e5457816020015b610e416113c2565b815260200190600190039081610e395790505b5097508067ffffffffffffffff811115610e7157610e70611cc7565b5b604051908082528060200260200182016040528015610e9f5781602001602082028036833780820191505090505b5096505f5b81811015610fa557858181518110610ebf57610ebe611d33565b5b60200260200101518b8281518110610eda57610ed9611d33565b5b602002602001018181525050848181518110610ef957610ef8611d33565b5b60200260200101518a8281518110610f1457610f13611d33565b5b6020026020010181905250838181518110610f3257610f31611d33565b5b6020026020010151898281518110610f4d57610f4c611d33565b5b6020026020010181905250828181518110610f6b57610f6a611d33565b5b6020026020010151888281518110610f8657610f85611d33565b5b6020026020010190151590811515815250508080600101915050610ea4565b505050505050509193509193565b5f805f9054906101000a900473ffffffffffffffffffffffffffffffffffffffff16905090565b5f807f000000000000000000000000000000000000000000000000000000000000000073ffffffffffffffffffffffffffffffffffffffff166318160ddd6040518163ffffffff1660e01b8152600401602060405180830381865afa158015611045573d5f803e3d5ffd5b505050506040513d601f19601f820116820180604052508101906110699190611c34565b90505f80600190505b828111611165578473ffffffffffffffffffffffffffffffffffffffff167f000000000000000000000000000000000000000000000000000000000000000073ffffffffffffffffffffffffffffffffffffffff16636352211e836040518263ffffffff1660e01b81526004016110e99190611551565b602060405180830381865afa158015611104573d5f803e3d5ffd5b505050506040513d601f19601f820116820180604052508101906111289190611d08565b73ffffffffffffffffffffffffffffffffffffffff160361115257818061114e90611d8d565b9250505b808061115d90611d8d565b915050611072565b508092505050919050565b611178611236565b5f73ffffffffffffffffffffffffffffffffffffffff168173ffffffffffffffffffffffffffffffffffffffff16036111e8575f6040517f1e4fbdf70000000000000000000000000000000000000000000000000000000081526004016111df9190611b8d565b60405180910390fd5b6111f1816112bd565b50565b805f013560015f8481526020019081526020015f206001015f0181905550806020013560015f8481526020019081526020015f20600101600101819055505050565b61123e61137e565b73ffffffffffffffffffffffffffffffffffffffff1661125c610fb3565b73ffffffffffffffffffffffffffffffffffffffff16146112bb5761127f61137e565b6040517f118cdaa70000000000000000000000000000000000000000000000000000000081526004016112b29190611b8d565b60405180910390fd5b565b5f805f9054906101000a900473ffffffffffffffffffffffffffffffffffffffff169050815f806101000a81548173ffffffffffffffffffffffffffffffffffffffff021916908373ffffffffffffffffffffffffffffffffffffffff1602179055508173ffffffffffffffffffffffffffffffffffffffff168173ffffffffffffffffffffffffffffffffffffffff167f8be0079c531659141344cd1fd0a4f28419497f9722a3daafe3b4186f6b6457e060405160405180910390a35050565b5f33905090565b60405180606001604052805f73ffffffffffffffffffffffffffffffffffffffff1681526020016113b46113c2565b81526020015f151581525090565b60405180604001604052805f81526020015f81525090565b5f604051905090565b5f80fd5b5f80fd5b5f73ffffffffffffffffffffffffffffffffffffffff82169050919050565b5f611414826113eb565b9050919050565b6114248161140a565b811461142e575f80fd5b50565b5f8135905061143f8161141b565b92915050565b5f80fd5b5f80fd5b5f80fd5b5f8083601f84011261146657611465611445565b5b8235905067ffffffffffffffff81111561148357611482611449565b5b60208301915083600182028301111561149f5761149e61144d565b5b9250929050565b5f80fd5b5f604082840312156114bf576114be6114a6565b5b81905092915050565b5f805f80608085870312156114e0576114df6113e3565b5b5f6114ed87828801611431565b945050602085013567ffffffffffffffff81111561150e5761150d6113e7565b5b61151a87828801611451565b9350935050604061152d878288016114aa565b91505092959194509250565b5f819050919050565b61154b81611539565b82525050565b5f6020820190506115645f830184611542565b92915050565b61157381611539565b811461157d575f80fd5b50565b5f8135905061158e8161156a565b92915050565b5f602082840312156115a9576115a86113e3565b5b5f6115b684828501611580565b91505092915050565b6115c88161140a565b82525050565b6115d781611539565b82525050565b604082015f8201516115f15f8501826115ce565b50602082015161160460208501826115ce565b50505050565b5f8115159050919050565b61161e8161160a565b82525050565b608082015f8201516116385f8501826115bf565b50602082015161164b60208501826115dd565b50604082015161165e6060850182611615565b50505050565b5f6080820190506116775f830184611624565b92915050565b5f8060608385031215611693576116926113e3565b5b5f6116a085828601611580565b92505060206116b1858286016114aa565b9150509250929050565b5f819050919050565b5f6116de6116d96116d4846113eb565b6116bb565b6113eb565b9050919050565b5f6116ef826116c4565b9050919050565b5f611700826116e5565b9050919050565b611710816116f6565b82525050565b5f6020820190506117295f830184611707565b92915050565b5f60208284031215611744576117436113e3565b5b5f61175184828501611431565b91505092915050565b5f81519050919050565b5f82825260208201905092915050565b5f819050602082019050919050565b5f61178e83836115ce565b60208301905092915050565b5f602082019050919050565b5f6117b08261175a565b6117ba8185611764565b93506117c583611774565b805f5b838110156117f55781516117dc8882611783565b97506117e78361179a565b9250506001810190506117c8565b5085935050505092915050565b5f6020820190508181035f83015261181a81846117a6565b905092915050565b61182b8161160a565b8114611835575f80fd5b50565b5f8135905061184681611822565b92915050565b5f8060408385031215611862576118616113e3565b5b5f61186f85828601611580565b925050602061188085828601611838565b9150509250929050565b5f81519050919050565b5f82825260208201905092915050565b5f819050602082019050919050565b5f81519050919050565b5f82825260208201905092915050565b5f5b838110156118ea5780820151818401526020810190506118cf565b5f8484015250505050565b5f601f19601f8301169050919050565b5f61190f826118b3565b61191981856118bd565b93506119298185602086016118cd565b611932816118f5565b840191505092915050565b5f6119488383611905565b905092915050565b5f602082019050919050565b5f6119668261188a565b6119708185611894565b935083602082028501611982856118a4565b805f5b858110156119bd578484038952815161199e858261193d565b94506119a983611950565b925060208a01995050600181019050611985565b50829750879550505050505092915050565b5f81519050919050565b5f82825260208201905092915050565b5f819050602082019050919050565b5f611a0383836115dd565b60408301905092915050565b5f602082019050919050565b5f611a25826119cf565b611a2f81856119d9565b9350611a3a836119e9565b805f5b83811015611a6a578151611a5188826119f8565b9750611a5c83611a0f565b925050600181019050611a3d565b5085935050505092915050565b5f81519050919050565b5f82825260208201905092915050565b5f819050602082019050919050565b5f611aab8383611615565b60208301905092915050565b5f602082019050919050565b5f611acd82611a77565b611ad78185611a81565b9350611ae283611a91565b805f5b83811015611b12578151611af98882611aa0565b9750611b0483611ab7565b925050600181019050611ae5565b5085935050505092915050565b5f6080820190508181035f830152611b3781876117a6565b90508181036020830152611b4b818661195c565b90508181036040830152611b5f8185611a1b565b90508181036060830152611b738184611ac3565b905095945050505050565b611b878161140a565b82525050565b5f602082019050611ba05f830184611b7e565b92915050565b5f82825260208201905092915050565b828183375f83830152505050565b5f611bcf8385611ba6565b9350611bdc838584611bb6565b611be5836118f5565b840190509392505050565b5f604082019050611c035f830186611b7e565b8181036020830152611c16818486611bc4565b9050949350505050565b5f81519050611c2e8161156a565b92915050565b5f60208284031215611c4957611c486113e3565b5b5f611c5684828501611c20565b91505092915050565b7f4e6f74206c6973746572000000000000000000000000000000000000000000005f82015250565b5f611c93600a83611ba6565b9150611c9e82611c5f565b602082019050919050565b5f6020820190508181035f830152611cc081611c87565b9050919050565b7f4e487b71000000000000000000000000000000000000000000000000000000005f52604160045260245ffd5b5f81519050611d028161141b565b92915050565b5f60208284031215611d1d57611d1c6113e3565b5b5f611d2a84828501611cf4565b91505092915050565b7f4e487b71000000000000000000000000000000000000000000000000000000005f52603260045260245ffd5b7f4e487b71000000000000000000000000000000000000000000000000000000005f52601160045260245ffd5b5f611d9782611539565b91507fffffffffffffffffffffffffffffffffffffffffffffffffffffffffffffffff8203611dc957611dc8611d60565b5b600182019050919050565b611ddd8161160a565b82525050565b5f602082019050611df65f830184611dd4565b92915050565b5f80fd5b611e09826118f5565b810181811067ffffffffffffffff82111715611e2857611e27611cc7565b5b80604052505050565b5f611e3a6113da565b9050611e468282611e00565b919050565b5f67ffffffffffffffff821115611e6557611e64611cc7565b5b611e6e826118f5565b9050602081019050919050565b5f611e8d611e8884611e4b565b611e31565b905082815260208101848484011115611ea957611ea8611dfc565b5b611eb48482856118cd565b509392505050565b5f82601f830112611ed057611ecf611445565b5b8151611ee0848260208601611e7b565b91505092915050565b5f60208284031215611efe57611efd6113e3565b5b5f82015167ffffffffffffffff811115611f1b57611f1a6113e7565b5b611f2784828501611ebc565b9150509291505056fea2646970667358221220f26700d47bb87a130dfa0838a01de5a6ff8a191bd57f6533824e1ef112fda08f64736f6c63430008160033","linkReferences":{}},"methodIdentifiers":{"createListing(address,string,(uint256,uint256))":"05f772f1","getListing(uint256)":"107a274a","getUserNFTCount(address)":"b2865e04","getUserNFTDetails(address)":"7a035850","getUserNFTs(address)":"52de4ee5","owner()":"8da5cb5b","propertyNft()":"3103d566","renounceOwnership()":"715018a6","setListingActive(uint256,bool)":"5549756c","transferOwnership(address)":"f2fde38b","updateListingPricing(uint256,(uint256,uint256))":"236e71a2"},"id":22}