{"abi":[{"type":"constructor","inputs":[{"name":"initialOwner","type":"address","internalType":"address"}],"stateMutability":"nonpayable"},{"type":"function","name":"approve","inputs":[{"name":"to","type":"address","internalType":"address"},{"name":"tokenId","type":"uint256","internalType":"uint256"}],"outputs":[],"stateMutability":"nonpayable"},{"type":"function","name":"balanceOf","inputs":[{"name":"owner","type":"address","internalType":"address"}],"outputs":[{"name":"","type":"uint256","internalType":"uint256"}],"stateMutability":"view"},{"type":"function","name":"getApproved","inputs":[{"name":"tokenId","type":"uint256","internalType":"uint256"}],"outputs":[{"name":"","type":"address","internalType":"address"}],"stateMutability":"view"},{"type":"function","name":"isApprovedForAll","inputs":[{"name":"owner","type":"address","internalType":"address"},{"name":"operator","type":"address","internalType":"address"}],"outputs":[{"name":"","type":"bool","internalType":"bool"}],"stateMutability":"view"},{"type":"function","name":"isMarket","inputs":[{"name":"","type":"address","internalType":"address"}],"outputs":[{"name":"","type":"bool","internalType":"bool"}],"stateMutability":"view"},{"type":"function","name":"isRegistry","inputs":[{"name":"","type":"address","internalType":"address"}],"outputs":[{"name":"","type":"bool","internalType":"bool"}],"stateMutability":"view"},{"type":"function","name":"mint","inputs":[{"name":"to","type":"address","internalType":"address"},{"name":"uri","type":"string","internalType":"string"}],"outputs":[{"name":"tokenId","type":"uint256","internalType":"uint256"}],"stateMutability":"nonpayable"},{"type":"function","name":"mintForListing","inputs":[{"name":"to","type":"address","internalType":"address"},{"name":"uri","type":"string","internalType":"string"}],"outputs":[{"name":"tokenId","type":"uint256","internalType":"uint256"}],"stateMutability":"nonpayable"},{"type":"function","name":"name","inputs":[],"outputs":[{"name":"","type":"string","internalType":"string"}],"stateMutability":"view"},{"type":"function","name":"owner","inputs":[],"outputs":[{"name":"","type":"address","internalType":"address"}],"stateMutability":"view"},{"type":"function","name":"ownerOf","inputs":[{"name":"tokenId","type":"uint256","internalType":"uint256"}],"outputs":[{"name":"","type":"address","internalType":"address"}],"stateMutability":"view"},{"type":"function","name":"renounceOwnership","inputs":[],"outputs":[],"stateMutability":"nonpayable"},{"type":"function","name":"safeTransferFrom","inputs":[{"name":"from","type":"address","internalType":"address"},{"name":"to","type":"address","internalType":"address"},{"name":"tokenId","type":"uint256","internalType":"uint256"}],"outputs":[],"stateMutability":"nonpayable"},{"type":"function","name":"safeTransferFrom","inputs":[{"name":"from","type":"address","internalType":"address"},{"name":"to","type":"address","internalType":"address"},{"name":"tokenId","type":"uint256","internalType":"uint256"},{"name":"data","type":"bytes","internalType":"bytes"}],"outputs":[],"stateMutability":"nonpayable"},{"type":"function","name":"setApprovalForAll","inputs":[{"name":"operator","type":"address","internalType":"address"},{"name":"approved","type":"bool","internalType":"bool"}],"outputs":[],"stateMutability":"nonpayable"},{"type":"function","name":"setMarket","inputs":[{"name":"market","type":"address","internalType":"address"},{"name":"authorized","type":"bool","internalType":"bool"}],"outputs":[],"stateMutability":"nonpayable"},{"type":"function","name":"setRegistry","inputs":[{"name":"registry","type":"address","internalType":"address"},{"name":"authorized","type":"bool","internalType":"bool"}],"outputs":[],"stateMutability":"nonpayable"},{"type":"function","name":"setTokenURI","inputs":[{"name":"tokenId","type":"uint256","internalType":"uint256"},{"name":"uri","type":"string","internalType":"string"}],"outputs":[],"stateMutability":"nonpayable"},{"type":"function","name":"supportsInterface","inputs":[{"name":"interfaceId","type":"bytes4","internalType":"bytes4"}],"outputs":[{"name":"","type":"bool","internalType":"bool"}],"stateMutability":"view"},{"type":"function","name":"symbol","inputs":[],"outputs":[{"name":"","type":"string","internalType":"string"}],"stateMutability":"view"},{"type":"function","name":"tokenURI","inputs":[{"name":"tokenId","type":"uint256","internalType":"uint256"}],"outputs":[{"name":"","type":"string","internalType":"string"}],"stateMutability":"view"},{"type":"function","name":"totalSupply","inputs":[],"outputs":[{"name":"","type":"uint256","internalType":"uint256"}],"stateMutability":"view"},{"type":"function","name":"transferForSale","inputs":[{"name":"from","type":"address","internalType":"address"},{"name":"to","type":"address","internalType":"address"},{"name":"tokenId","type":"uint256","internalType":"uint256"}],"outputs":[],"stateMutability":"nonpayable"},{"type":"function","name":"transferFrom","inputs":[{"name":"from","type":"address","internalType":"address"},{"name":"to","type":"address","internalType":"address"},{"name":"tokenId","type":"uint256","internalType":"uint256"}],"outputs":[],"stateMutability":"nonpayable"},{"type":"function","name":"transferOwnership","inputs":[{"name":"newOwner","type":"address","internalType":"address"}],"outputs":[],"stateMutability":"nonpayable"},{"type":"event","name":"Approval","inputs":[{"name":"owner","type":"address","indexed":true,"internalType":"address"},{"name":"approved","type":"address","indexed":true,"internalType":"address"},{"name":"tokenId","type":"uint256","indexed":true,"internalType":"uint256"}],"anonymous":false},{"type":"event","name":"ApprovalForAll","inputs":[{"name":"owner","type":"address","indexed":true,"internalType":"address"},{"name":"operator","type":"address","indexed":true,"internalType":"address"},{"name":"approved","type":"bool","indexed":false,"internalType":"bool"}],"anonymous":false},{"type":"event","name":"OwnershipTransferred","inputs":[{"name":"previousOwner","type":"address","indexed":true,"internalType":"address"},{"name":"newOwner","type":"address","indexed":true,"internalType":"address"}],"anonymous":false},{"type":"event","name":"PropertyMinted","inputs":[{"name":"tokenId","type":"uint256","indexed":true,"internalType":"uint256"},{"name":"to","type":"address","indexed":true,"internalType":"address"},{"name":"uri","type":"string","indexed":false,"internalType":"string"}],"anonymous":false},{"type":"event","name":"PropertyURIUpdated","inputs":[{"name":"tokenId","type":"uint256","indexed":true,"internalType":"uint256"},{"name":"uri","type":"string","indexed":false,"internalType":"string"}],"anonymous":false},{"type":"event","name":"Transfer","inputs":[{"name":"from","type":"address","indexed":true,"internalType":"address"},{"name":"to","type":"address","indexed":true,"internalType":"address"},{"name":"tokenId","type":"uint256","indexed":true,"internalType":"uint256"}],"anonymous":false},{"type":"error","name":"ERC721IncorrectOwner","inputs":[{"name":"sender","type":"address","internalType":"address"},{"name":"tokenId","type":"uint256","internalType":"uint256"},{"name":"owner","type":"address","internalType":"address"}]},{"type":"error","name":"ERC721InsufficientApproval","inputs":[{"name":"operator","type":"address","internalType":"address"},{"name":"tokenId","type":"uint256","internalType":"uint256"}]},{"type":"error","name":"ERC721InvalidApprover","inputs":[{"name":"approver","type":"address","internalType":"address"}]},{"type":"error","name":"ERC721InvalidOperator","inputs":[{"name":"operator","type":"address","internalType":"address"}]},{"type":"error","name":"ERC721InvalidOwner","inputs":[{"name":"owner","type":"address","internalType":"address"}]},{"type":"error","name":"ERC721InvalidReceiver","inputs":[{"name":"receiver","type":"address","internalType":"address"}]},{"type":"error","name":"ERC721InvalidSender","inputs":[{"name":"sender","type":"address","internalType":"address"}]},{"type":"error","name":"ERC721NonexistentToken","inputs":[{"name":"tokenId","type":"uint256","internalType":"uint256"}]},{"type":"error","name":"OwnableInvalidOwner","inputs":[{"name":"owner","type":"address","internalType":"address"}]},{"type":"error","name":"OwnableUnauthorizedAccount","inputs":[{"name":"account","type":"address","internalType":"address"}]}],"bytecode":{"object":"0x608060405234801562000010575f80fd5b506040516200311e3803806200311e83398181016040528101906200003691906200027c565b806040518060400160405280600a81526020017f50757368427269636b73000000000000000000000000000000000000000000008152506040518060400160405280600281526020017f5042000000000000000000000000000000000000000000000000000000000000815250815f9081620000b3919062000510565b508060019081620000c5919062000510565b5050505f73ffffffffffffffffffffffffffffffffffffffff168173ffffffffffffffffffffffffffffffffffffffff16036200013b575f6040517f1e4fbdf700000000000000000000000000000000000000000000000000000000815260040162000132919062000605565b60405180910390fd5b6200014c816200015460201b60201c565b505062000620565b5f60065f9054906101000a900473ffffffffffffffffffffffffffffffffffffffff1690508160065f6101000a81548173ffffffffffffffffffffffffffffffffffffffff021916908373ffffffffffffffffffffffffffffffffffffffff1602179055508173ffffffffffffffffffffffffffffffffffffffff168173ffffffffffffffffffffffffffffffffffffffff167f8be0079c531659141344cd1fd0a4f28419497f9722a3daafe3b4186f6b6457e060405160405180910390a35050565b5f80fd5b5f73ffffffffffffffffffffffffffffffffffffffff82169050919050565b5f62000246826200021b565b9050919050565b62000258816200023a565b811462000263575f80fd5b50565b5f8151905062000276816200024d565b92915050565b5f6020828403121562000294576200029362000217565b5b5f620002a38482850162000266565b91505092915050565b5f81519050919050565b7f4e487b71000000000000000000000000000000000000000000000000000000005f52604160045260245ffd5b7f4e487b71000000000000000000000000000000000000000000000000000000005f52602260045260245ffd5b5f60028204905060018216806200032857607f821691505b6020821081036200033e576200033d620002e3565b5b50919050565b5f819050815f5260205f209050919050565b5f6020601f8301049050919050565b5f82821b905092915050565b5f60088302620003a27fffffffffffffffffffffffffffffffffffffffffffffffffffffffffffffffff8262000365565b620003ae868362000365565b95508019841693508086168417925050509392505050565b5f819050919050565b5f819050919050565b5f620003f8620003f2620003ec84620003c6565b620003cf565b620003c6565b9050919050565b5f819050919050565b6200041383620003d8565b6200042b6200042282620003ff565b84845462000371565b825550505050565b5f90565b6200044162000433565b6200044e81848462000408565b505050565b5b818110156200047557620004695f8262000437565b60018101905062000454565b5050565b601f821115620004c4576200048e8162000344565b620004998462000356565b81016020851015620004a9578190505b620004c1620004b88562000356565b83018262000453565b50505b505050565b5f82821c905092915050565b5f620004e65f1984600802620004c9565b1980831691505092915050565b5f620005008383620004d5565b9150826002028217905092915050565b6200051b82620002ac565b67ffffffffffffffff811115620005375762000536620002b6565b5b62000543825462000310565b6200055082828562000479565b5f60209050601f83116001811462000586575f841562000571578287015190505b6200057d8582620004f3565b865550620005ec565b601f198416620005968662000344565b5f5b82811015620005bf5784890151825560018201915060208501945060208101905062000598565b86831015620005df5784890151620005db601f891682620004d5565b8355505b6001600288020188555050505b505050505050565b620005ff816200023a565b82525050565b5f6020820190506200061a5f830184620005f4565b92915050565b612af0806200062e5f395ff3fe608060405234801561000f575f80fd5b5060043610610171575f3560e01c80636ec934da116100dc578063b88d4fde11610095578063d0def5211161006f578063d0def52114610443578063dc59155714610473578063e985e9c5146104a3578063f2fde38b146104d357610171565b8063b88d4fde146103db578063c87b56dd146103f7578063cb74f6d31461042757610171565b80636ec934da1461031957806370a0823114610349578063715018a6146103795780638da5cb5b1461038357806395d89b41146103a1578063a22cb465146103bf57610171565b806318160ddd1161012e57806318160ddd1461024757806323b872dd146102655780632911ba2c146102815780633334d16b1461029d57806342842e0e146102cd5780636352211e146102e957610171565b806301ffc9a71461017557806306fdde03146101a5578063081812fc146101c3578063095ea7b3146101f357806315bcf9b71461020f578063162094c41461022b575b5f80fd5b61018f600480360381019061018a9190611e3a565b6104ef565b60405161019c9190611e7f565b60405180910390f35b6101ad6105d0565b6040516101ba9190611f22565b60405180910390f35b6101dd60048036038101906101d89190611f75565b61065f565b6040516101ea9190611fdf565b60405180910390f35b61020d60048036038101906102089190612022565b61067a565b005b6102296004803603810190610224919061208a565b610690565b005b61024560048036038101906102409190612129565b6106f0565b005b61024f6107ce565b60405161025c9190612195565b60405180910390f35b61027f600480360381019061027a91906121ae565b6107d4565b005b61029b6004803603810190610296919061208a565b6108d3565b005b6102b760048036038101906102b291906121fe565b610933565b6040516102c49190611e7f565b60405180910390f35b6102e760048036038101906102e291906121ae565b610950565b005b61030360048036038101906102fe9190611f75565b61096f565b6040516103109190611fdf565b60405180910390f35b610333600480360381019061032e91906121fe565b610980565b6040516103409190611e7f565b60405180910390f35b610363600480360381019061035e91906121fe565b61099d565b6040516103709190612195565b60405180910390f35b610381610a53565b005b61038b610a66565b6040516103989190611fdf565b60405180910390f35b6103a9610a8e565b6040516103b69190611f22565b60405180910390f35b6103d960048036038101906103d4919061208a565b610b1e565b005b6103f560048036038101906103f09190612351565b610b34565b005b610411600480360381019061040c9190611f75565b610b59565b60405161041e9190611f22565b60405180910390f35b610441600480360381019061043c91906121ae565b610c04565b005b61045d600480360381019061045891906123d1565b610cac565b60405161046a9190612195565b60405180910390f35b61048d600480360381019061048891906123d1565b610d65565b60405161049a9190612195565b60405180910390f35b6104bd60048036038101906104b8919061242e565b610edc565b6040516104ca9190611e7f565b60405180910390f35b6104ed60048036038101906104e891906121fe565b610f6a565b005b5f7f80ac58cd000000000000000000000000000000000000000000000000000000007bffffffffffffffffffffffffffffffffffffffffffffffffffffffff1916827bffffffffffffffffffffffffffffffffffffffffffffffffffffffff191614806105b957507f5b5e139f000000000000000000000000000000000000000000000000000000007bffffffffffffffffffffffffffffffffffffffffffffffffffffffff1916827bffffffffffffffffffffffffffffffffffffffffffffffffffffffff1916145b806105c957506105c882610fee565b5b9050919050565b60605f80546105de90612499565b80601f016020809104026020016040519081016040528092919081815260200182805461060a90612499565b80156106555780601f1061062c57610100808354040283529160200191610655565b820191905f5260205f20905b81548152906001019060200180831161063857829003601f168201915b5050505050905090565b5f61066982611057565b50610673826110dd565b9050919050565b61068c8282610687611116565b61111d565b5050565b61069861112f565b80600b5f8473ffffffffffffffffffffffffffffffffffffffff1673ffffffffffffffffffffffffffffffffffffffff1681526020019081526020015f205f6101000a81548160ff0219169083151502179055505050565b6106f861112f565b5f73ffffffffffffffffffffffffffffffffffffffff16610718846111b6565b73ffffffffffffffffffffffffffffffffffffffff160361076e576040517f08c379a000000000000000000000000000000000000000000000000000000000815260040161076590612513565b60405180910390fd5b818160075f8681526020019081526020015f20918261078e9291906126d8565b50827f199ca76f78f41458c3f6aa5e27e2b7d3f5f132049b51d5e6f334147a2408a87083836040516107c19291906127d1565b60405180910390a2505050565b60095481565b5f73ffffffffffffffffffffffffffffffffffffffff168273ffffffffffffffffffffffffffffffffffffffff1603610844575f6040517f64a0ae9200000000000000000000000000000000000000000000000000000000815260040161083b9190611fdf565b60405180910390fd5b5f6108578383610852611116565b6111ef565b90508373ffffffffffffffffffffffffffffffffffffffff168173ffffffffffffffffffffffffffffffffffffffff16146108cd578382826040517f64283d7b0000000000000000000000000000000000000000000000000000000081526004016108c4939291906127f3565b60405180910390fd5b50505050565b6108db61112f565b80600a5f8473ffffffffffffffffffffffffffffffffffffffff1673ffffffffffffffffffffffffffffffffffffffff1681526020019081526020015f205f6101000a81548160ff0219169083151502179055505050565b600a602052805f5260405f205f915054906101000a900460ff1681565b61096a83838360405180602001604052805f815250610b34565b505050565b5f61097982611057565b9050919050565b600b602052805f5260405f205f915054906101000a900460ff1681565b5f8073ffffffffffffffffffffffffffffffffffffffff168273ffffffffffffffffffffffffffffffffffffffff1603610a0e575f6040517f89c62b64000000000000000000000000000000000000000000000000000000008152600401610a059190611fdf565b60405180910390fd5b60035f8373ffffffffffffffffffffffffffffffffffffffff1673ffffffffffffffffffffffffffffffffffffffff1681526020019081526020015f20549050919050565b610a5b61112f565b610a645f6113fa565b565b5f60065f9054906101000a900473ffffffffffffffffffffffffffffffffffffffff16905090565b606060018054610a9d90612499565b80601f0160208091040260200160405190810160405280929190818152602001828054610ac990612499565b8015610b145780601f10610aeb57610100808354040283529160200191610b14565b820191905f5260205f20905b815481529060010190602001808311610af757829003601f168201915b5050505050905090565b610b30610b29611116565b83836114bd565b5050565b610b3f8484846107d4565b610b53610b4a611116565b85858585611626565b50505050565b6060610b6482611057565b5060075f8381526020019081526020015f208054610b8190612499565b80601f0160208091040260200160405190810160405280929190818152602001828054610bad90612499565b8015610bf85780601f10610bcf57610100808354040283529160200191610bf8565b820191905f5260205f20905b815481529060010190602001808311610bdb57829003601f168201915b50505050509050919050565b600b5f3373ffffffffffffffffffffffffffffffffffffffff1673ffffffffffffffffffffffffffffffffffffffff1681526020019081526020015f205f9054906101000a900460ff16610c8d576040517f08c379a0000000000000000000000000000000000000000000000000000000008152600401610c8490612898565b60405180910390fd5b610ca783838360405180602001604052805f8152506117d2565b505050565b5f610cb561112f565b60085f8154610cc3906128e3565b9190508190559050610cd584826117f7565b828260075f8481526020019081526020015f209182610cf59291906126d8565b5060095f815480929190610d08906128e3565b91905055508373ffffffffffffffffffffffffffffffffffffffff16817f0d6a75679ec9091a61a3192722f7073bfdf34a0e67c61c08484adef28bfa375a8585604051610d569291906127d1565b60405180910390a39392505050565b5f610d6e610a66565b73ffffffffffffffffffffffffffffffffffffffff163373ffffffffffffffffffffffffffffffffffffffff161480610ded5750600a5f3373ffffffffffffffffffffffffffffffffffffffff1673ffffffffffffffffffffffffffffffffffffffff1681526020019081526020015f205f9054906101000a900460ff165b610e2c576040517f08c379a0000000000000000000000000000000000000000000000000000000008152600401610e239061299a565b60405180910390fd5b60085f8154610e3a906128e3565b9190508190559050610e4c84826117f7565b828260075f8481526020019081526020015f209182610e6c9291906126d8565b5060095f815480929190610e7f906128e3565b91905055508373ffffffffffffffffffffffffffffffffffffffff16817f0d6a75679ec9091a61a3192722f7073bfdf34a0e67c61c08484adef28bfa375a8585604051610ecd9291906127d1565b60405180910390a39392505050565b5f60055f8473ffffffffffffffffffffffffffffffffffffffff1673ffffffffffffffffffffffffffffffffffffffff1681526020019081526020015f205f8373ffffffffffffffffffffffffffffffffffffffff1673ffffffffffffffffffffffffffffffffffffffff1681526020019081526020015f205f9054906101000a900460ff16905092915050565b610f7261112f565b5f73ffffffffffffffffffffffffffffffffffffffff168173ffffffffffffffffffffffffffffffffffffffff1603610fe2575f6040517f1e4fbdf7000000000000000000000000000000000000000000000000000000008152600401610fd99190611fdf565b60405180910390fd5b610feb816113fa565b50565b5f7f01ffc9a7000000000000000000000000000000000000000000000000000000007bffffffffffffffffffffffffffffffffffffffffffffffffffffffff1916827bffffffffffffffffffffffffffffffffffffffffffffffffffffffff1916149050919050565b5f80611062836111b6565b90505f73ffffffffffffffffffffffffffffffffffffffff168173ffffffffffffffffffffffffffffffffffffffff16036110d457826040517f7e2732890000000000000000000000000000000000000000000000000000000081526004016110cb9190612195565b60405180910390fd5b80915050919050565b5f60045f8381526020019081526020015f205f9054906101000a900473ffffffffffffffffffffffffffffffffffffffff169050919050565b5f33905090565b61112a8383836001611814565b505050565b611137611116565b73ffffffffffffffffffffffffffffffffffffffff16611155610a66565b73ffffffffffffffffffffffffffffffffffffffff16146111b457611178611116565b6040517f118cdaa70000000000000000000000000000000000000000000000000000000081526004016111ab9190611fdf565b60405180910390fd5b565b5f60025f8381526020019081526020015f205f9054906101000a900473ffffffffffffffffffffffffffffffffffffffff169050919050565b5f806111fa846111b6565b90505f73ffffffffffffffffffffffffffffffffffffffff168373ffffffffffffffffffffffffffffffffffffffff161461123b5761123a8184866119d3565b5b5f73ffffffffffffffffffffffffffffffffffffffff168173ffffffffffffffffffffffffffffffffffffffff16146112c65761127a5f855f80611814565b600160035f8373ffffffffffffffffffffffffffffffffffffffff1673ffffffffffffffffffffffffffffffffffffffff1681526020019081526020015f205f82825403925050819055505b5f73ffffffffffffffffffffffffffffffffffffffff168573ffffffffffffffffffffffffffffffffffffffff161461134557600160035f8773ffffffffffffffffffffffffffffffffffffffff1673ffffffffffffffffffffffffffffffffffffffff1681526020019081526020015f205f82825401925050819055505b8460025f8681526020019081526020015f205f6101000a81548173ffffffffffffffffffffffffffffffffffffffff021916908373ffffffffffffffffffffffffffffffffffffffff160217905550838573ffffffffffffffffffffffffffffffffffffffff168273ffffffffffffffffffffffffffffffffffffffff167fddf252ad1be2c89b69c2b068fc378daa952ba7f163c4a11628f55a4df523b3ef60405160405180910390a4809150509392505050565b5f60065f9054906101000a900473ffffffffffffffffffffffffffffffffffffffff1690508160065f6101000a81548173ffffffffffffffffffffffffffffffffffffffff021916908373ffffffffffffffffffffffffffffffffffffffff1602179055508173ffffffffffffffffffffffffffffffffffffffff168173ffffffffffffffffffffffffffffffffffffffff167f8be0079c531659141344cd1fd0a4f28419497f9722a3daafe3b4186f6b6457e060405160405180910390a35050565b5f73ffffffffffffffffffffffffffffffffffffffff168273ffffffffffffffffffffffffffffffffffffffff160361152d57816040517f5b08ba180000000000000000000000000000000000000000000000000000000081526004016115249190611fdf565b60405180910390fd5b8060055f8573ffffffffffffffffffffffffffffffffffffffff1673ffffffffffffffffffffffffffffffffffffffff1681526020019081526020015f205f8473ffffffffffffffffffffffffffffffffffffffff1673ffffffffffffffffffffffffffffffffffffffff1681526020019081526020015f205f6101000a81548160ff0219169083151502179055508173ffffffffffffffffffffffffffffffffffffffff168373ffffffffffffffffffffffffffffffffffffffff167f17307eab39ab6107e8899845ad3d59bd9653f200f220920489ca2b5937696c31836040516116199190611e7f565b60405180910390a3505050565b5f8373ffffffffffffffffffffffffffffffffffffffff163b11156117cb578273ffffffffffffffffffffffffffffffffffffffff1663150b7a02868685856040518563ffffffff1660e01b81526004016116849493929190612a0a565b6020604051808303815f875af19250505080156116bf57506040513d601f19601f820116820180604052508101906116bc9190612a68565b60015b611740573d805f81146116ed576040519150601f19603f3d011682016040523d82523d5f602084013e6116f2565b606091505b505f81510361173857836040517f64a0ae9200000000000000000000000000000000000000000000000000000000815260040161172f9190611fdf565b60405180910390fd5b805160208201fd5b63150b7a0260e01b7bffffffffffffffffffffffffffffffffffffffffffffffffffffffff1916817bffffffffffffffffffffffffffffffffffffffffffffffffffffffff1916146117c957836040517f64a0ae920000000000000000000000000000000000000000000000000000000081526004016117c09190611fdf565b60405180910390fd5b505b5050505050565b6117dd848484611a96565b6117f16117e8611116565b85858585611626565b50505050565b611810828260405180602001604052805f815250611bfe565b5050565b808061184c57505f73ffffffffffffffffffffffffffffffffffffffff168273ffffffffffffffffffffffffffffffffffffffff1614155b1561197e575f61185b84611057565b90505f73ffffffffffffffffffffffffffffffffffffffff168373ffffffffffffffffffffffffffffffffffffffff16141580156118c557508273ffffffffffffffffffffffffffffffffffffffff168173ffffffffffffffffffffffffffffffffffffffff1614155b80156118d857506118d68184610edc565b155b1561191a57826040517fa9fbf51f0000000000000000000000000000000000000000000000000000000081526004016119119190611fdf565b60405180910390fd5b811561197c57838573ffffffffffffffffffffffffffffffffffffffff168273ffffffffffffffffffffffffffffffffffffffff167f8c5be1e5ebec7d5bd14f71427d1e84f3dd0314c0f7b2291e5b200ac8c7c3b92560405160405180910390a45b505b8360045f8581526020019081526020015f205f6101000a81548173ffffffffffffffffffffffffffffffffffffffff021916908373ffffffffffffffffffffffffffffffffffffffff16021790555050505050565b6119de838383611c21565b611a91575f73ffffffffffffffffffffffffffffffffffffffff168373ffffffffffffffffffffffffffffffffffffffff1603611a5257806040517f7e273289000000000000000000000000000000000000000000000000000000008152600401611a499190612195565b60405180910390fd5b81816040517f177e802f000000000000000000000000000000000000000000000000000000008152600401611a88929190612a93565b60405180910390fd5b505050565b5f73ffffffffffffffffffffffffffffffffffffffff168273ffffffffffffffffffffffffffffffffffffffff1603611b06575f6040517f64a0ae92000000000000000000000000000000000000000000000000000000008152600401611afd9190611fdf565b60405180910390fd5b5f611b1283835f6111ef565b90505f73ffffffffffffffffffffffffffffffffffffffff168173ffffffffffffffffffffffffffffffffffffffff1603611b8457816040517f7e273289000000000000000000000000000000000000000000000000000000008152600401611b7b9190612195565b60405180910390fd5b8373ffffffffffffffffffffffffffffffffffffffff168173ffffffffffffffffffffffffffffffffffffffff1614611bf8578382826040517f64283d7b000000000000000000000000000000000000000000000000000000008152600401611bef939291906127f3565b60405180910390fd5b50505050565b611c088383611ce1565b611c1c611c13611116565b5f858585611626565b505050565b5f8073ffffffffffffffffffffffffffffffffffffffff168373ffffffffffffffffffffffffffffffffffffffff1614158015611cd857508273ffffffffffffffffffffffffffffffffffffffff168473ffffffffffffffffffffffffffffffffffffffff161480611c995750611c988484610edc565b5b80611cd757508273ffffffffffffffffffffffffffffffffffffffff16611cbf836110dd565b73ffffffffffffffffffffffffffffffffffffffff16145b5b90509392505050565b5f73ffffffffffffffffffffffffffffffffffffffff168273ffffffffffffffffffffffffffffffffffffffff1603611d51575f6040517f64a0ae92000000000000000000000000000000000000000000000000000000008152600401611d489190611fdf565b60405180910390fd5b5f611d5d83835f6111ef565b90505f73ffffffffffffffffffffffffffffffffffffffff168173ffffffffffffffffffffffffffffffffffffffff1614611dcf575f6040517f73c6ac6e000000000000000000000000000000000000000000000000000000008152600401611dc69190611fdf565b60405180910390fd5b505050565b5f604051905090565b5f80fd5b5f80fd5b5f7fffffffff0000000000000000000000000000000000000000000000000000000082169050919050565b611e1981611de5565b8114611e23575f80fd5b50565b5f81359050611e3481611e10565b92915050565b5f60208284031215611e4f57611e4e611ddd565b5b5f611e5c84828501611e26565b91505092915050565b5f8115159050919050565b611e7981611e65565b82525050565b5f602082019050611e925f830184611e70565b92915050565b5f81519050919050565b5f82825260208201905092915050565b5f5b83811015611ecf578082015181840152602081019050611eb4565b5f8484015250505050565b5f601f19601f8301169050919050565b5f611ef482611e98565b611efe8185611ea2565b9350611f0e818560208601611eb2565b611f1781611eda565b840191505092915050565b5f6020820190508181035f830152611f3a8184611eea565b905092915050565b5f819050919050565b611f5481611f42565b8114611f5e575f80fd5b50565b5f81359050611f6f81611f4b565b92915050565b5f60208284031215611f8a57611f89611ddd565b5b5f611f9784828501611f61565b91505092915050565b5f73ffffffffffffffffffffffffffffffffffffffff82169050919050565b5f611fc982611fa0565b9050919050565b611fd981611fbf565b82525050565b5f602082019050611ff25f830184611fd0565b92915050565b61200181611fbf565b811461200b575f80fd5b50565b5f8135905061201c81611ff8565b92915050565b5f806040838503121561203857612037611ddd565b5b5f6120458582860161200e565b925050602061205685828601611f61565b9150509250929050565b61206981611e65565b8114612073575f80fd5b50565b5f8135905061208481612060565b92915050565b5f80604083850312156120a05761209f611ddd565b5b5f6120ad8582860161200e565b92505060206120be85828601612076565b9150509250929050565b5f80fd5b5f80fd5b5f80fd5b5f8083601f8401126120e9576120e86120c8565b5b8235905067ffffffffffffffff811115612106576121056120cc565b5b602083019150836001820283011115612122576121216120d0565b5b9250929050565b5f805f604084860312156121405761213f611ddd565b5b5f61214d86828701611f61565b935050602084013567ffffffffffffffff81111561216e5761216d611de1565b5b61217a868287016120d4565b92509250509250925092565b61218f81611f42565b82525050565b5f6020820190506121a85f830184612186565b92915050565b5f805f606084860312156121c5576121c4611ddd565b5b5f6121d28682870161200e565b93505060206121e38682870161200e565b92505060406121f486828701611f61565b9150509250925092565b5f6020828403121561221357612212611ddd565b5b5f6122208482850161200e565b91505092915050565b5f80fd5b7f4e487b71000000000000000000000000000000000000000000000000000000005f52604160045260245ffd5b61226382611eda565b810181811067ffffffffffffffff821117156122825761228161222d565b5b80604052505050565b5f612294611dd4565b90506122a0828261225a565b919050565b5f67ffffffffffffffff8211156122bf576122be61222d565b5b6122c882611eda565b9050602081019050919050565b828183375f83830152505050565b5f6122f56122f0846122a5565b61228b565b90508281526020810184848401111561231157612310612229565b5b61231c8482856122d5565b509392505050565b5f82601f830112612338576123376120c8565b5b81356123488482602086016122e3565b91505092915050565b5f805f806080858703121561236957612368611ddd565b5b5f6123768782880161200e565b94505060206123878782880161200e565b935050604061239887828801611f61565b925050606085013567ffffffffffffffff8111156123b9576123b8611de1565b5b6123c587828801612324565b91505092959194509250565b5f805f604084860312156123e8576123e7611ddd565b5b5f6123f58682870161200e565b935050602084013567ffffffffffffffff81111561241657612415611de1565b5b612422868287016120d4565b92509250509250925092565b5f806040838503121561244457612443611ddd565b5b5f6124518582860161200e565b92505060206124628582860161200e565b9150509250929050565b7f4e487b71000000000000000000000000000000000000000000000000000000005f52602260045260245ffd5b5f60028204905060018216806124b057607f821691505b6020821081036124c3576124c261246c565b5b50919050565b7f4e6f6e6578697374656e7420746f6b656e0000000000000000000000000000005f82015250565b5f6124fd601183611ea2565b9150612508826124c9565b602082019050919050565b5f6020820190508181035f83015261252a816124f1565b9050919050565b5f82905092915050565b5f819050815f5260205f209050919050565b5f6020601f8301049050919050565b5f82821b905092915050565b5f600883026125977fffffffffffffffffffffffffffffffffffffffffffffffffffffffffffffffff8261255c565b6125a1868361255c565b95508019841693508086168417925050509392505050565b5f819050919050565b5f6125dc6125d76125d284611f42565b6125b9565b611f42565b9050919050565b5f819050919050565b6125f5836125c2565b612609612601826125e3565b848454612568565b825550505050565b5f90565b61261d612611565b6126288184846125ec565b505050565b5b8181101561264b576126405f82612615565b60018101905061262e565b5050565b601f821115612690576126618161253b565b61266a8461254d565b81016020851015612679578190505b61268d6126858561254d565b83018261262d565b50505b505050565b5f82821c905092915050565b5f6126b05f1984600802612695565b1980831691505092915050565b5f6126c883836126a1565b9150826002028217905092915050565b6126e28383612531565b67ffffffffffffffff8111156126fb576126fa61222d565b5b6127058254612499565b61271082828561264f565b5f601f83116001811461273d575f841561272b578287013590505b61273585826126bd565b86555061279c565b601f19841661274b8661253b565b5f5b828110156127725784890135825560018201915060208501945060208101905061274d565b8683101561278f578489013561278b601f8916826126a1565b8355505b6001600288020188555050505b50505050505050565b5f6127b08385611ea2565b93506127bd8385846122d5565b6127c683611eda565b840190509392505050565b5f6020820190508181035f8301526127ea8184866127a5565b90509392505050565b5f6060820190506128065f830186611fd0565b6128136020830185612186565b6128206040830184611fd0565b949350505050565b7f4f6e6c7920617574686f72697a6564206d61726b65742063616e207472616e735f8201527f66657220666f722073616c657300000000000000000000000000000000000000602082015250565b5f612882602d83611ea2565b915061288d82612828565b604082019050919050565b5f6020820190508181035f8301526128af81612876565b9050919050565b7f4e487b71000000000000000000000000000000000000000000000000000000005f52601160045260245ffd5b5f6128ed82611f42565b91507fffffffffffffffffffffffffffffffffffffffffffffffffffffffffffffffff820361291f5761291e6128b6565b5b600182019050919050565b7f4f6e6c792072656769737472792063616e206d696e7420666f72206c697374695f8201527f6e67730000000000000000000000000000000000000000000000000000000000602082015250565b5f612984602383611ea2565b915061298f8261292a565b604082019050919050565b5f6020820190508181035f8301526129b181612978565b9050919050565b5f81519050919050565b5f82825260208201905092915050565b5f6129dc826129b8565b6129e681856129c2565b93506129f6818560208601611eb2565b6129ff81611eda565b840191505092915050565b5f608082019050612a1d5f830187611fd0565b612a2a6020830186611fd0565b612a376040830185612186565b8181036060830152612a4981846129d2565b905095945050505050565b5f81519050612a6281611e10565b92915050565b5f60208284031215612a7d57612a7c611ddd565b5b5f612a8a84828501612a54565b91505092915050565b5f604082019050612aa65f830185611fd0565b612ab36020830184612186565b939250505056fea2646970667358221220a0974b3ffeb1eee3689c89acc0e04b8ef389daddf9737d7605aab1048f8a49a164736f6c63430008160033","linkReferences":{}},"methodIdentifiers":{"approve(address,uint256)":"095ea7b3","balanceOf(address)":"70a08231","getApproved(uint256)":"081812fc","isApprovedForAll(address,address)":"e985e9c5","isMarket(address)":"6ec934da","isRegistry(address)":"3334d16b","mint(address,string)":"d0def521","mintForListing(address,string)":"dc591557","name()":"06fdde03","owner()":"8da5cb5b","ownerOf(uint256)":"6352211e","renounceOwnership()":"715018a6","safeTransferFrom(address,address,uint256)":"42842e0e","safeTransferFrom(address,address,uint256,bytes)":"b88d4fde","setApprovalForAll(address,bool)":"a22cb465","setMarket(address,bool)":"15bcf9b7","setRegistry(address,bool)":"2911ba2c","setTokenURI(uint256,string)":"162094c4","supportsInterface(bytes4)":"01ffc9a7","symbol()":"95d89b41","tokenURI(uint256)":"c87b56dd","totalSupply()":"18160ddd","transferForSale(address,address,uint256)":"cb74f6d3","transferFrom(address,address,uint256)":"23b872dd","transferOwnership(address)":"f2fde38b"},"id":19}