{"abi":[{"type":"constructor","inputs":[{"name":"initialOwner","type":"address","internalType":"address"},{"name":"registry_","type":"address","internalType":"contract PushBricksRegistry"}],"stateMutability":"nonpayable"},{"type":"function","name":"buy","inputs":[{"name":"tokenId","type":"uint256","internalType":"uint256"}],"outputs":[],"stateMutability":"payable"},{"type":"function","name":"getBuyCount","inputs":[{"name":"tokenId","type":"uint256","internalType":"uint256"},{"name":"ns","type":"string","internalType":"string"},{"name":"id","type":"string","internalType":"string"}],"outputs":[{"name":"","type":"uint256","internalType":"uint256"}],"stateMutability":"view"},{"type":"function","name":"getTotalBuyCount","inputs":[{"name":"tokenId","type":"uint256","internalType":"uint256"}],"outputs":[{"name":"","type":"uint256","internalType":"uint256"}],"stateMutability":"view"},{"type":"function","name":"owner","inputs":[],"outputs":[{"name":"","type":"address","internalType":"address"}],"stateMutability":"view"},{"type":"function","name":"registry","inputs":[],"outputs":[{"name":"","type":"address","internalType":"contract PushBricksRegistry"}],"stateMutability":"view"},{"type":"function","name":"renounceOwnership","inputs":[],"outputs":[],"stateMutability":"nonpayable"},{"type":"function","name":"transferOwnership","inputs":[{"name":"newOwner","type":"address","internalType":"address"}],"outputs":[],"stateMutability":"nonpayable"},{"type":"event","name":"BuyCountIncremented","inputs":[{"name":"tokenId","type":"uint256","indexed":true,"internalType":"uint256"},{"name":"chainNamespace","type":"string","indexed":false,"internalType":"string"},{"name":"chainId","type":"string","indexed":false,"internalType":"string"},{"name":"newCount","type":"uint256","indexed":false,"internalType":"uint256"}],"anonymous":false},{"type":"event","name":"BuyExecuted","inputs":[{"name":"tokenId","type":"uint256","indexed":true,"internalType":"uint256"},{"name":"caller","type":"address","indexed":true,"internalType":"address"},{"name":"chainNamespace","type":"string","indexed":false,"internalType":"string"},{"name":"chainId","type":"string","indexed":false,"internalType":"string"}],"anonymous":false},{"type":"event","name":"OwnershipTransferred","inputs":[{"name":"previousOwner","type":"address","indexed":true,"internalType":"address"},{"name":"newOwner","type":"address","indexed":true,"internalType":"address"}],"anonymous":false},{"type":"error","name":"OwnableInvalidOwner","inputs":[{"name":"owner","type":"address","internalType":"address"}]},{"type":"error","name":"OwnableUnauthorizedAccount","inputs":[{"name":"account","type":"address","internalType":"address"}]},{"type":"error","name":"ReentrancyGuardReentrantCall","inputs":[]}],"bytecode":{"object":"0x60a060405234801562000010575f80fd5b5060405162001d2438038062001d24833981810160405281019062000036919062000267565b815f73ffffffffffffffffffffffffffffffffffffffff168173ffffffffffffffffffffffffffffffffffffffff1603620000aa575f6040517f1e4fbdf7000000000000000000000000000000000000000000000000000000008152600401620000a19190620002bd565b60405180910390fd5b620000bb81620000ff60201b60201c565b50600180819055508073ffffffffffffffffffffffffffffffffffffffff1660808173ffffffffffffffffffffffffffffffffffffffff16815250505050620002d8565b5f805f9054906101000a900473ffffffffffffffffffffffffffffffffffffffff169050815f806101000a81548173ffffffffffffffffffffffffffffffffffffffff021916908373ffffffffffffffffffffffffffffffffffffffff1602179055508173ffffffffffffffffffffffffffffffffffffffff168173ffffffffffffffffffffffffffffffffffffffff167f8be0079c531659141344cd1fd0a4f28419497f9722a3daafe3b4186f6b6457e060405160405180910390a35050565b5f80fd5b5f73ffffffffffffffffffffffffffffffffffffffff82169050919050565b5f620001ef82620001c4565b9050919050565b6200020181620001e3565b81146200020c575f80fd5b50565b5f815190506200021f81620001f6565b92915050565b5f6200023182620001e3565b9050919050565b620002438162000225565b81146200024e575f80fd5b50565b5f81519050620002618162000238565b92915050565b5f806040838503121562000280576200027f620001c0565b5b5f6200028f858286016200020f565b9250506020620002a28582860162000251565b9150509250929050565b620002b781620001e3565b82525050565b5f602082019050620002d25f830184620002ac565b92915050565b608051611a176200030d5f395f81816101c80152818161023d0152818161034c01528181610a570152610c650152611a175ff3fe60806040526004361061006f575f3560e01c80638da5cb5b1161004d5780638da5cb5b146100ef578063d96a094a14610119578063e891f53814610135578063f2fde38b146101715761006f565b80634e71a67a14610073578063715018a6146100af5780637b103999146100c5575b5f80fd5b34801561007e575f80fd5b5061009960048036038101906100949190610d96565b610199565b6040516100a69190610dd0565b60405180910390f35b3480156100ba575f80fd5b506100c36101b3565b005b3480156100d0575f80fd5b506100d96101c6565b6040516100e69190610e63565b60405180910390f35b3480156100fa575f80fd5b506101036101ea565b6040516101109190610e9c565b60405180910390f35b610133600480360381019061012e9190610d96565b610211565b005b348015610140575f80fd5b5061015b60048036038101906101569190610f16565b610558565b6040516101689190610dd0565b60405180910390f35b34801561017c575f80fd5b5061019760048036038101906101929190610fd1565b610614565b005b5f60035f8381526020019081526020015f20549050919050565b6101bb610698565b6101c45f61071f565b565b7f000000000000000000000000000000000000000000000000000000000000000081565b5f805f9054906101000a900473ffffffffffffffffffffffffffffffffffffffff16905090565b6102196107e0565b61022281610826565b5f8061022c6108e9565b9150915061023a828261097a565b5f7f000000000000000000000000000000000000000000000000000000000000000073ffffffffffffffffffffffffffffffffffffffff16633103d5666040518163ffffffff1660e01b8152600401602060405180830381865afa1580156102a4573d5f803e3d5ffd5b505050506040513d601f19601f820116820180604052508101906102c89190611037565b73ffffffffffffffffffffffffffffffffffffffff16636352211e856040518263ffffffff1660e01b81526004016103009190610dd0565b602060405180830381865afa15801561031b573d5f803e3d5ffd5b505050506040513d601f19601f8201168201806040525081019061033f9190611076565b905061034a84610a54565b7f000000000000000000000000000000000000000000000000000000000000000073ffffffffffffffffffffffffffffffffffffffff16633103d5666040518163ffffffff1660e01b8152600401602060405180830381865afa1580156103b3573d5f803e3d5ffd5b505050506040513d601f19601f820116820180604052508101906103d79190611037565b73ffffffffffffffffffffffffffffffffffffffff1663cb74f6d38233876040518463ffffffff1660e01b8152600401610413939291906110a1565b5f604051808303815f87803b15801561042a575f80fd5b505af115801561043c573d5f803e3d5ffd5b505050505f610452845f01518560200151610c16565b90505f60025f8781526020019081526020015f205f8381526020019081526020015f205f815461048190611103565b919050819055905060035f8781526020019081526020015f205f81546104a690611103565b919050819055503373ffffffffffffffffffffffffffffffffffffffff16867fb57fbc2e101758024e17ed493ff44c9eb36a2556ae0543082c46643fbbf65a52875f015188602001516040516104fd9291906111d4565b60405180910390a3857f1086ffdbb2e185cb065e1ed1d2d0d062fd31ab79feb0324a1112b953b1967d00865f015187602001518460405161054093929190611209565b60405180910390a25050505050610555610c48565b50565b5f60025f8781526020019081526020015f205f6105fb87878080601f0160208091040260200160405190810160405280939291908181526020018383808284375f81840152601f19601f8201169050808301925050505050505086868080601f0160208091040260200160405190810160405280939291908181526020018383808284375f81840152601f19601f82011690508083019250505050505050610c16565b81526020019081526020015f2054905095945050505050565b61061c610698565b5f73ffffffffffffffffffffffffffffffffffffffff168173ffffffffffffffffffffffffffffffffffffffff160361068c575f6040517f1e4fbdf70000000000000000000000000000000000000000000000000000000081526004016106839190610e9c565b60405180910390fd5b6106958161071f565b50565b6106a0610c51565b73ffffffffffffffffffffffffffffffffffffffff166106be6101ea565b73ffffffffffffffffffffffffffffffffffffffff161461071d576106e1610c51565b6040517f118cdaa70000000000000000000000000000000000000000000000000000000081526004016107149190610e9c565b60405180910390fd5b565b5f805f9054906101000a900473ffffffffffffffffffffffffffffffffffffffff169050815f806101000a81548173ffffffffffffffffffffffffffffffffffffffff021916908373ffffffffffffffffffffffffffffffffffffffff1602179055508173ffffffffffffffffffffffffffffffffffffffff168173ffffffffffffffffffffffffffffffffffffffff167f8be0079c531659141344cd1fd0a4f28419497f9722a3daafe3b4186f6b6457e060405160405180910390a35050565b60026001540361081c576040517f3ee5aeb500000000000000000000000000000000000000000000000000000000815260040160405180910390fd5b6002600181905550565b5f8061083183610c58565b925050915080610876576040517f08c379a000000000000000000000000000000000000000000000000000000000815260040161086d90611296565b60405180910390fd5b5f73ffffffffffffffffffffffffffffffffffffffff168273ffffffffffffffffffffffffffffffffffffffff16036108e4576040517f08c379a00000000000000000000000000000000000000000000000000000000081526004016108db906112fe565b60405180910390fd5b505050565b6108f1610d19565b5f60ea73ffffffffffffffffffffffffffffffffffffffff1663d0f4b097336040518263ffffffff1660e01b815260040161092c9190610e9c565b5f60405180830381865afa158015610946573d5f803e3d5ffd5b505050506040513d5f823e3d601f19601f8201168201806040525081019061096e91906115c6565b80925081935050509091565b8015610a50575f825f0151836020015160405160200161099b92919061165a565b6040516020818303038152906040528051906020012090506040516020016109c290611711565b6040516020818303038152906040528051906020012081036109e45750610a50565b6040516020016109f3906117c4565b604051602081830303815290604052805190602001208103610a155750610a50565b6040517f08c379a0000000000000000000000000000000000000000000000000000000008152600401610a479061182d565b60405180910390fd5b5050565b5f7f000000000000000000000000000000000000000000000000000000000000000073ffffffffffffffffffffffffffffffffffffffff16633103d5666040518163ffffffff1660e01b8152600401602060405180830381865afa158015610abe573d5f803e3d5ffd5b505050506040513d601f19601f82011682018060405250810190610ae29190611037565b73ffffffffffffffffffffffffffffffffffffffff16636352211e836040518263ffffffff1660e01b8152600401610b1a9190610dd0565b602060405180830381865afa158015610b35573d5f803e3d5ffd5b505050506040513d601f19601f82011682018060405250810190610b599190611076565b90505f3403610b685750610c13565b5f8173ffffffffffffffffffffffffffffffffffffffff1634604051610b8d90611878565b5f6040518083038185875af1925050503d805f8114610bc7576040519150601f19603f3d011682016040523d82523d5f602084013e610bcc565b606091505b5050905080610c10576040517f08c379a0000000000000000000000000000000000000000000000000000000008152600401610c07906118d6565b60405180910390fd5b50505b50565b5f8282604051602001610c2a92919061165a565b60405160208183030381529060405280519060200120905092915050565b60018081905550565b5f33905090565b5f610c61610d3a565b5f807f000000000000000000000000000000000000000000000000000000000000000073ffffffffffffffffffffffffffffffffffffffff1663107a274a866040518263ffffffff1660e01b8152600401610cbc9190610dd0565b608060405180830381865afa158015610cd7573d5f803e3d5ffd5b505050506040513d601f19601f82011682018060405250810190610cfb91906119b6565b9050805f015181602001518260400151935093509350509193909250565b60405180606001604052806060815260200160608152602001606081525090565b60405180604001604052805f81526020015f81525090565b5f604051905090565b5f80fd5b5f80fd5b5f819050919050565b610d7581610d63565b8114610d7f575f80fd5b50565b5f81359050610d9081610d6c565b92915050565b5f60208284031215610dab57610daa610d5b565b5b5f610db884828501610d82565b91505092915050565b610dca81610d63565b82525050565b5f602082019050610de35f830184610dc1565b92915050565b5f73ffffffffffffffffffffffffffffffffffffffff82169050919050565b5f819050919050565b5f610e2b610e26610e2184610de9565b610e08565b610de9565b9050919050565b5f610e3c82610e11565b9050919050565b5f610e4d82610e32565b9050919050565b610e5d81610e43565b82525050565b5f602082019050610e765f830184610e54565b92915050565b5f610e8682610de9565b9050919050565b610e9681610e7c565b82525050565b5f602082019050610eaf5f830184610e8d565b92915050565b5f80fd5b5f80fd5b5f80fd5b5f8083601f840112610ed657610ed5610eb5565b5b8235905067ffffffffffffffff811115610ef357610ef2610eb9565b5b602083019150836001820283011115610f0f57610f0e610ebd565b5b9250929050565b5f805f805f60608688031215610f2f57610f2e610d5b565b5b5f610f3c88828901610d82565b955050602086013567ffffffffffffffff811115610f5d57610f5c610d5f565b5b610f6988828901610ec1565b9450945050604086013567ffffffffffffffff811115610f8c57610f8b610d5f565b5b610f9888828901610ec1565b92509250509295509295909350565b610fb081610e7c565b8114610fba575f80fd5b50565b5f81359050610fcb81610fa7565b92915050565b5f60208284031215610fe657610fe5610d5b565b5b5f610ff384828501610fbd565b91505092915050565b5f61100682610e7c565b9050919050565b61101681610ffc565b8114611020575f80fd5b50565b5f815190506110318161100d565b92915050565b5f6020828403121561104c5761104b610d5b565b5b5f61105984828501611023565b91505092915050565b5f8151905061107081610fa7565b92915050565b5f6020828403121561108b5761108a610d5b565b5b5f61109884828501611062565b91505092915050565b5f6060820190506110b45f830186610e8d565b6110c16020830185610e8d565b6110ce6040830184610dc1565b949350505050565b7f4e487b71000000000000000000000000000000000000000000000000000000005f52601160045260245ffd5b5f61110d82610d63565b91507fffffffffffffffffffffffffffffffffffffffffffffffffffffffffffffffff820361113f5761113e6110d6565b5b600182019050919050565b5f81519050919050565b5f82825260208201905092915050565b5f5b83811015611181578082015181840152602081019050611166565b5f8484015250505050565b5f601f19601f8301169050919050565b5f6111a68261114a565b6111b08185611154565b93506111c0818560208601611164565b6111c98161118c565b840191505092915050565b5f6040820190508181035f8301526111ec818561119c565b90508181036020830152611200818461119c565b90509392505050565b5f6060820190508181035f830152611221818661119c565b90508181036020830152611235818561119c565b90506112446040830184610dc1565b949350505050565b7f496e616374697665206c697374696e67000000000000000000000000000000005f82015250565b5f611280601083611154565b915061128b8261124c565b602082019050919050565b5f6020820190508181035f8301526112ad81611274565b9050919050565b7f4e6f206c697374696e67000000000000000000000000000000000000000000005f82015250565b5f6112e8600a83611154565b91506112f3826112b4565b602082019050919050565b5f6020820190508181035f830152611315816112dc565b9050919050565b5f80fd5b7f4e487b71000000000000000000000000000000000000000000000000000000005f52604160045260245ffd5b6113568261118c565b810181811067ffffffffffffffff8211171561137557611374611320565b5b80604052505050565b5f611387610d52565b9050611393828261134d565b919050565b5f80fd5b5f80fd5b5f67ffffffffffffffff8211156113ba576113b9611320565b5b6113c38261118c565b9050602081019050919050565b5f6113e26113dd846113a0565b61137e565b9050828152602081018484840111156113fe576113fd61139c565b5b611409848285611164565b509392505050565b5f82601f83011261142557611424610eb5565b5b81516114358482602086016113d0565b91505092915050565b5f67ffffffffffffffff82111561145857611457611320565b5b6114618261118c565b9050602081019050919050565b5f61148061147b8461143e565b61137e565b90508281526020810184848401111561149c5761149b61139c565b5b6114a7848285611164565b509392505050565b5f82601f8301126114c3576114c2610eb5565b5b81516114d384826020860161146e565b91505092915050565b5f606082840312156114f1576114f061131c565b5b6114fb606061137e565b90505f82015167ffffffffffffffff81111561151a57611519611398565b5b61152684828501611411565b5f83015250602082015167ffffffffffffffff81111561154957611548611398565b5b61155584828501611411565b602083015250604082015167ffffffffffffffff81111561157957611578611398565b5b611585848285016114af565b60408301525092915050565b5f8115159050919050565b6115a581611591565b81146115af575f80fd5b50565b5f815190506115c08161159c565b92915050565b5f80604083850312156115dc576115db610d5b565b5b5f83015167ffffffffffffffff8111156115f9576115f8610d5f565b5b611605858286016114dc565b9250506020611616858286016115b2565b9150509250929050565b5f81905092915050565b5f6116348261114a565b61163e8185611620565b935061164e818560208601611164565b80840191505092915050565b5f611665828561162a565b9150611671828461162a565b91508190509392505050565b7f736f6c616e6100000000000000000000000000000000000000000000000000005f82015250565b5f6116b1600683611620565b91506116bc8261167d565b600682019050919050565b7f457457545241425a61597136694d6665594b6f755275313636565532787161315f82015250565b5f6116fb602083611620565b9150611706826116c7565b602082019050919050565b5f61171b826116a5565b9150611726826116ef565b9150819050919050565b7f65697031353500000000000000000000000000000000000000000000000000005f82015250565b5f611764600683611620565b915061176f82611730565b600682019050919050565b7f31313135353131310000000000000000000000000000000000000000000000005f82015250565b5f6117ae600883611620565b91506117b98261177a565b600882019050919050565b5f6117ce82611758565b91506117d9826117a2565b9150819050919050565b7f496e76616c696420636861696e000000000000000000000000000000000000005f82015250565b5f611817600d83611154565b9150611822826117e3565b602082019050919050565b5f6020820190508181035f8301526118448161180b565b9050919050565b5f81905092915050565b50565b5f6118635f8361184b565b915061186e82611855565b5f82019050919050565b5f61188282611858565b9150819050919050565b7f5061796f7574206661696c6564000000000000000000000000000000000000005f82015250565b5f6118c0600d83611154565b91506118cb8261188c565b602082019050919050565b5f6020820190508181035f8301526118ed816118b4565b9050919050565b5f8151905061190281610d6c565b92915050565b5f6040828403121561191d5761191c61131c565b5b611927604061137e565b90505f611936848285016118f4565b5f830152506020611949848285016118f4565b60208301525092915050565b5f6080828403121561196a5761196961131c565b5b611974606061137e565b90505f61198384828501611062565b5f83015250602061199684828501611908565b60208301525060606119aa848285016115b2565b60408301525092915050565b5f608082840312156119cb576119ca610d5b565b5b5f6119d884828501611955565b9150509291505056fea264697066735822122076a086062a4d7a5babf00add0acb0088f43a3a052d6089c4fc81ecacab11b7bf64736f6c63430008160033","linkReferences":{}},"methodIdentifiers":{"buy(uint256)":"d96a094a","getBuyCount(uint256,string,string)":"e891f538","getTotalBuyCount(uint256)":"4e71a67a","owner()":"8da5cb5b","registry()":"7b103999","renounceOwnership()":"715018a6","transferOwnership(address)":"f2fde38b"},"id":21}